{
  "_format": "hh-sol-artifact-1",
  "contractName": "PoSSimulator",
  "sourceName": "contracts/PoS.sol",
  "abi": [
    {
      "inputs": [],
      "stateMutability": "nonpayable",
      "type": "constructor"
    },
    {
      "anonymous": false,
      "inputs": [
        {
          "indexed": true,
          "internalType": "address",
          "name": "validator",
          "type": "address"
        },
        {
          "indexed": false,
          "internalType": "uint256",
          "name": "epoch",
          "type": "uint256"
        }
      ],
      "name": "Attestation",
      "type": "event"
    },
    {
      "anonymous": false,
      "inputs": [
        {
          "indexed": true,
          "internalType": "address",
          "name": "validator",
          "type": "address"
        },
        {
          "indexed": false,
          "internalType": "uint256",
          "name": "epoch",
          "type": "uint256"
        },
        {
          "indexed": false,
          "internalType": "uint256",
          "name": "penalty",
          "type": "uint256"
        }
      ],
      "name": "AttestationMissed",
      "type": "event"
    },
    {
      "anonymous": false,
      "inputs": [
        {
          "indexed": true,
          "internalType": "address",
          "name": "proposer",
          "type": "address"
        },
        {
          "indexed": false,
          "internalType": "uint256",
          "name": "blockNumber",
          "type": "uint256"
        },
        {
          "indexed": false,
          "internalType": "uint256",
          "name": "reward",
          "type": "uint256"
        }
      ],
      "name": "BlockProposed",
      "type": "event"
    },
    {
      "anonymous": false,
      "inputs": [
        {
          "indexed": false,
          "internalType": "uint256",
          "name": "newEpoch",
          "type": "uint256"
        },
        {
          "indexed": false,
          "internalType": "uint256",
          "name": "timestamp",
          "type": "uint256"
        }
      ],
      "name": "EpochAdvanced",
      "type": "event"
    },
    {
      "anonymous": false,
      "inputs": [
        {
          "indexed": true,
          "internalType": "address",
          "name": "sender",
          "type": "address"
        },
        {
          "indexed": false,
          "internalType": "string",
          "name": "message",
          "type": "string"
        },
        {
          "indexed": false,
          "internalType": "uint256",
          "name": "timestamp",
          "type": "uint256"
        }
      ],
      "name": "NewMessage",
      "type": "event"
    },
    {
      "anonymous": false,
      "inputs": [
        {
          "indexed": true,
          "internalType": "address",
          "name": "validator",
          "type": "address"
        },
        {
          "indexed": false,
          "internalType": "uint256",
          "name": "amount",
          "type": "uint256"
        },
        {
          "indexed": false,
          "internalType": "string",
          "name": "reason",
          "type": "string"
        }
      ],
      "name": "Slashed",
      "type": "event"
    },
    {
      "anonymous": false,
      "inputs": [
        {
          "indexed": true,
          "internalType": "address",
          "name": "validator",
          "type": "address"
        },
        {
          "indexed": false,
          "internalType": "uint256",
          "name": "amount",
          "type": "uint256"
        }
      ],
      "name": "Staked",
      "type": "event"
    },
    {
      "anonymous": false,
      "inputs": [
        {
          "indexed": true,
          "internalType": "address",
          "name": "validator",
          "type": "address"
        },
        {
          "indexed": false,
          "internalType": "uint256",
          "name": "unlockTime",
          "type": "uint256"
        }
      ],
      "name": "WithdrawalRequested",
      "type": "event"
    },
    {
      "anonymous": false,
      "inputs": [
        {
          "indexed": true,
          "internalType": "address",
          "name": "validator",
          "type": "address"
        },
        {
          "indexed": false,
          "internalType": "uint256",
          "name": "amount",
          "type": "uint256"
        },
        {
          "indexed": false,
          "internalType": "uint256",
          "name": "reward",
          "type": "uint256"
        }
      ],
      "name": "Withdrawn",
      "type": "event"
    },
    {
      "inputs": [],
      "name": "ATTESTATION_PENALTY_PERCENT",
      "outputs": [
        {
          "internalType": "uint256",
          "name": "",
          "type": "uint256"
        }
      ],
      "stateMutability": "view",
      "type": "function"
    },
    {
      "inputs": [],
      "name": "BLOCK_REWARD",
      "outputs": [
        {
          "internalType": "uint256",
          "name": "",
          "type": "uint256"
        }
      ],
      "stateMutability": "view",
      "type": "function"
    },
    {
      "inputs": [],
      "name": "EPOCH_DURATION",
      "outputs": [
        {
          "internalType": "uint256",
          "name": "",
          "type": "uint256"
        }
      ],
      "stateMutability": "view",
      "type": "function"
    },
    {
      "inputs": [],
      "name": "MIN_STAKE",
      "outputs": [
        {
          "internalType": "uint256",
          "name": "",
          "type": "uint256"
        }
      ],
      "stateMutability": "view",
      "type": "function"
    },
    {
      "inputs": [],
      "name": "MIN_STAKE_DURATION",
      "outputs": [
        {
          "internalType": "uint256",
          "name": "",
          "type": "uint256"
        }
      ],
      "stateMutability": "view",
      "type": "function"
    },
    {
      "inputs": [],
      "name": "SECONDS_PER_YEAR",
      "outputs": [
        {
          "internalType": "uint256",
          "name": "",
          "type": "uint256"
        }
      ],
      "stateMutability": "view",
      "type": "function"
    },
    {
      "inputs": [],
      "name": "SLASH_PENALTY_PERCENT",
      "outputs": [
        {
          "internalType": "uint256",
          "name": "",
          "type": "uint256"
        }
      ],
      "stateMutability": "view",
      "type": "function"
    },
    {
      "inputs": [],
      "name": "TARGET_APY",
      "outputs": [
        {
          "internalType": "uint256",
          "name": "",
          "type": "uint256"
        }
      ],
      "stateMutability": "view",
      "type": "function"
    },
    {
      "inputs": [],
      "name": "UNBONDING_PERIOD",
      "outputs": [
        {
          "internalType": "uint256",
          "name": "",
          "type": "uint256"
        }
      ],
      "stateMutability": "view",
      "type": "function"
    },
    {
      "inputs": [],
      "name": "advanceEpoch",
      "outputs": [],
      "stateMutability": "nonpayable",
      "type": "function"
    },
    {
      "inputs": [],
      "name": "attest",
      "outputs": [],
      "stateMutability": "nonpayable",
      "type": "function"
    },
    {
      "inputs": [
        {
          "internalType": "address",
          "name": "",
          "type": "address"
        }
      ],
      "name": "blocksProposed",
      "outputs": [
        {
          "internalType": "uint256",
          "name": "",
          "type": "uint256"
        }
      ],
      "stateMutability": "view",
      "type": "function"
    },
    {
      "inputs": [
        {
          "internalType": "address",
          "name": "validator",
          "type": "address"
        }
      ],
      "name": "calculateReward",
      "outputs": [
        {
          "internalType": "uint256",
          "name": "",
          "type": "uint256"
        }
      ],
      "stateMutability": "view",
      "type": "function"
    },
    {
      "inputs": [],
      "name": "cancelWithdrawal",
      "outputs": [],
      "stateMutability": "nonpayable",
      "type": "function"
    },
    {
      "inputs": [],
      "name": "checkMissedAttestations",
      "outputs": [],
      "stateMutability": "nonpayable",
      "type": "function"
    },
    {
      "inputs": [],
      "name": "currentEpoch",
      "outputs": [
        {
          "internalType": "uint256",
          "name": "",
          "type": "uint256"
        }
      ],
      "stateMutability": "view",
      "type": "function"
    },
    {
      "inputs": [],
      "name": "getCurrentAPY",
      "outputs": [
        {
          "internalType": "uint256",
          "name": "",
          "type": "uint256"
        }
      ],
      "stateMutability": "view",
      "type": "function"
    },
    {
      "inputs": [
        {
          "internalType": "address",
          "name": "validator",
          "type": "address"
        }
      ],
      "name": "getMinStakeDurationRemaining",
      "outputs": [
        {
          "internalType": "uint256",
          "name": "",
          "type": "uint256"
        }
      ],
      "stateMutability": "view",
      "type": "function"
    },
    {
      "inputs": [],
      "name": "getTimeUntilNextEpoch",
      "outputs": [
        {
          "internalType": "uint256",
          "name": "",
          "type": "uint256"
        }
      ],
      "stateMutability": "view",
      "type": "function"
    },
    {
      "inputs": [
        {
          "internalType": "address",
          "name": "validator",
          "type": "address"
        }
      ],
      "name": "getUnbondingTimeRemaining",
      "outputs": [
        {
          "internalType": "uint256",
          "name": "",
          "type": "uint256"
        }
      ],
      "stateMutability": "view",
      "type": "function"
    },
    {
      "inputs": [
        {
          "internalType": "uint256",
          "name": "index",
          "type": "uint256"
        }
      ],
      "name": "getValidator",
      "outputs": [
        {
          "internalType": "address",
          "name": "",
          "type": "address"
        }
      ],
      "stateMutability": "view",
      "type": "function"
    },
    {
      "inputs": [],
      "name": "getValidatorCount",
      "outputs": [
        {
          "internalType": "uint256",
          "name": "",
          "type": "uint256"
        }
      ],
      "stateMutability": "view",
      "type": "function"
    },
    {
      "inputs": [
        {
          "internalType": "address",
          "name": "validator",
          "type": "address"
        }
      ],
      "name": "getValidatorStats",
      "outputs": [
        {
          "internalType": "uint256",
          "name": "stakeAmount",
          "type": "uint256"
        },
        {
          "internalType": "uint256",
          "name": "rewardAmount",
          "type": "uint256"
        },
        {
          "internalType": "uint256",
          "name": "slashes",
          "type": "uint256"
        },
        {
          "internalType": "uint256",
          "name": "blocks",
          "type": "uint256"
        },
        {
          "internalType": "uint256",
          "name": "attestations",
          "type": "uint256"
        },
        {
          "internalType": "uint256",
          "name": "unbondingTime",
          "type": "uint256"
        }
      ],
      "stateMutability": "view",
      "type": "function"
    },
    {
      "inputs": [
        {
          "internalType": "address",
          "name": "validator",
          "type": "address"
        }
      ],
      "name": "hasAttestedThisEpoch",
      "outputs": [
        {
          "internalType": "bool",
          "name": "",
          "type": "bool"
        }
      ],
      "stateMutability": "view",
      "type": "function"
    },
    {
      "inputs": [],
      "name": "instructor",
      "outputs": [
        {
          "internalType": "address",
          "name": "",
          "type": "address"
        }
      ],
      "stateMutability": "view",
      "type": "function"
    },
    {
      "inputs": [
        {
          "internalType": "address",
          "name": "",
          "type": "address"
        }
      ],
      "name": "lastAttestationEpoch",
      "outputs": [
        {
          "internalType": "uint256",
          "name": "",
          "type": "uint256"
        }
      ],
      "stateMutability": "view",
      "type": "function"
    },
    {
      "inputs": [],
      "name": "lastEpochTime",
      "outputs": [
        {
          "internalType": "uint256",
          "name": "",
          "type": "uint256"
        }
      ],
      "stateMutability": "view",
      "type": "function"
    },
    {
      "inputs": [
        {
          "internalType": "address",
          "name": "",
          "type": "address"
        }
      ],
      "name": "missedAttestations",
      "outputs": [
        {
          "internalType": "uint256",
          "name": "",
          "type": "uint256"
        }
      ],
      "stateMutability": "view",
      "type": "function"
    },
    {
      "inputs": [],
      "name": "requestWithdrawal",
      "outputs": [],
      "stateMutability": "nonpayable",
      "type": "function"
    },
    {
      "inputs": [
        {
          "internalType": "string",
          "name": "_msg",
          "type": "string"
        }
      ],
      "name": "sendMessage",
      "outputs": [],
      "stateMutability": "nonpayable",
      "type": "function"
    },
    {
      "inputs": [],
      "name": "simulateBlockProposal",
      "outputs": [
        {
          "internalType": "address",
          "name": "",
          "type": "address"
        }
      ],
      "stateMutability": "nonpayable",
      "type": "function"
    },
    {
      "inputs": [
        {
          "internalType": "address",
          "name": "validator",
          "type": "address"
        },
        {
          "internalType": "string",
          "name": "reason",
          "type": "string"
        }
      ],
      "name": "slash",
      "outputs": [],
      "stateMutability": "nonpayable",
      "type": "function"
    },
    {
      "inputs": [
        {
          "internalType": "address",
          "name": "",
          "type": "address"
        }
      ],
      "name": "slashCount",
      "outputs": [
        {
          "internalType": "uint256",
          "name": "",
          "type": "uint256"
        }
      ],
      "stateMutability": "view",
      "type": "function"
    },
    {
      "inputs": [],
      "name": "stake",
      "outputs": [],
      "stateMutability": "payable",
      "type": "function"
    },
    {
      "inputs": [
        {
          "internalType": "address",
          "name": "",
          "type": "address"
        }
      ],
      "name": "stakes",
      "outputs": [
        {
          "internalType": "uint256",
          "name": "",
          "type": "uint256"
        }
      ],
      "stateMutability": "view",
      "type": "function"
    },
    {
      "inputs": [
        {
          "internalType": "address",
          "name": "",
          "type": "address"
        }
      ],
      "name": "stakingStartTime",
      "outputs": [
        {
          "internalType": "uint256",
          "name": "",
          "type": "uint256"
        }
      ],
      "stateMutability": "view",
      "type": "function"
    },
    {
      "inputs": [],
      "name": "totalStaked",
      "outputs": [
        {
          "internalType": "uint256",
          "name": "",
          "type": "uint256"
        }
      ],
      "stateMutability": "view",
      "type": "function"
    },
    {
      "inputs": [
        {
          "internalType": "address",
          "name": "newInstructor",
          "type": "address"
        }
      ],
      "name": "transferInstructor",
      "outputs": [],
      "stateMutability": "nonpayable",
      "type": "function"
    },
    {
      "inputs": [
        {
          "internalType": "address",
          "name": "",
          "type": "address"
        }
      ],
      "name": "validatorIndex",
      "outputs": [
        {
          "internalType": "uint256",
          "name": "",
          "type": "uint256"
        }
      ],
      "stateMutability": "view",
      "type": "function"
    },
    {
      "inputs": [
        {
          "internalType": "uint256",
          "name": "",
          "type": "uint256"
        }
      ],
      "name": "validatorList",
      "outputs": [
        {
          "internalType": "address",
          "name": "",
          "type": "address"
        }
      ],
      "stateMutability": "view",
      "type": "function"
    },
    {
      "inputs": [],
      "name": "withdraw",
      "outputs": [],
      "stateMutability": "nonpayable",
      "type": "function"
    },
    {
      "inputs": [
        {
          "internalType": "address",
          "name": "",
          "type": "address"
        }
      ],
      "name": "withdrawalRequestTime",
      "outputs": [
        {
          "internalType": "uint256",
          "name": "",
          "type": "uint256"
        }
      ],
      "stateMutability": "view",
      "type": "function"
    },
    {
      "stateMutability": "payable",
      "type": "receive"
    }
  ],
  "bytecode": "0x608060405234801561001057600080fd5b50336000806101000a81548173ffffffffffffffffffffffffffffffffffffffff021916908373ffffffffffffffffffffffffffffffffffffffff16021790555042600a819055506001600981905550613a008061006f6000396000f3fe6080604052600436106102555760003560e01c80639601ddf911610139578063d1232730116100b6578063dbaf21451161007a578063dbaf2145146108e3578063e0c570ba146108fa578063e62e04bc14610925578063e6a69ab814610950578063ed9f24481461097b578063f78d63ce146109a65761025c565b8063d1232730146107d6578063d2837c7e14610813578063d337c99f14610850578063d82e39621461087b578063d9a912ec146108b85761025c565b8063b69572ff116100fd578063b69572ff146106ef578063b89ea3131461071a578063c5b8bf8a14610731578063cb1c2b5c1461076e578063d00b4e15146107995761025c565b80639601ddf9146105e2578063962ca4961461061f578063a70b9f0c1461064a578063b048e05614610675578063b5d89627146106b25761025c565b80633cf80e6c116101d257806371ae413d1161019657806371ae413d146104c957806376671808146104f45780637f05b9ef1461051f578063817b1cd21461054a57806389c614b8146105755780639258effc146105a05761025c565b80633cf80e6c146103f8578063402b71dd1461040f578063469c8110146104385780635e6c64af146104615780637071688a1461049e5761025c565b80632783b88b116102195780632783b88b1461035a5780632ef559d2146103835780633084e87f146103c05780633a4b66f1146103d75780633ccfd60b146103e15761025c565b806306f461661461026157806309b6d8301461028c57806316934fc4146102c95780631e10e0ab1461030657806322611280146103435761025c565b3661025c57005b600080fd5b34801561026d57600080fd5b506102766109e3565b6040516102839190612a7a565b60405180910390f35b34801561029857600080fd5b506102b360048036038101906102ae9190612b07565b610a1b565b6040516102c09190612a7a565b60405180910390f35b3480156102d557600080fd5b506102f060048036038101906102eb9190612b07565b610a33565b6040516102fd9190612a7a565b60405180910390f35b34801561031257600080fd5b5061032d60048036038101906103289190612b07565b610a4b565b60405161033a9190612b4f565b60405180910390f35b34801561034f57600080fd5b50610358610a99565b005b34801561036657600080fd5b50610381600480360381019061037c9190612b07565b610be4565b005b34801561038f57600080fd5b506103aa60048036038101906103a59190612b07565b610d24565b6040516103b79190612a7a565b60405180910390f35b3480156103cc57600080fd5b506103d5610d3c565b005b6103df610ef7565b005b3480156103ed57600080fd5b506103f6611161565b005b34801561040457600080fd5b5061040d611547565b005b34801561041b57600080fd5b5061043660048036038101906104319190612cb0565b6115f4565b005b34801561044457600080fd5b5061045f600480360381019061045a9190612d0c565b611879565b005b34801561046d57600080fd5b5061048860048036038101906104839190612b07565b6118cc565b6040516104959190612a7a565b60405180910390f35b3480156104aa57600080fd5b506104b36119b2565b6040516104c09190612a7a565b60405180910390f35b3480156104d557600080fd5b506104de6119bf565b6040516104eb9190612d64565b60405180910390f35b34801561050057600080fd5b506105096119e3565b6040516105169190612a7a565b60405180910390f35b34801561052b57600080fd5b506105346119e9565b6040516105419190612a7a565b60405180910390f35b34801561055657600080fd5b5061055f6119f4565b60405161056c9190612a7a565b60405180910390f35b34801561058157600080fd5b5061058a6119fa565b6040516105979190612a7a565b60405180910390f35b3480156105ac57600080fd5b506105c760048036038101906105c29190612b07565b611a00565b6040516105d996959493929190612d7f565b60405180910390f35b3480156105ee57600080fd5b5061060960048036038101906106049190612b07565b611b30565b6040516106169190612a7a565b60405180910390f35b34801561062b57600080fd5b50610634611b48565b6040516106419190612a7a565b60405180910390f35b34801561065657600080fd5b5061065f611bde565b60405161066c9190612a7a565b60405180910390f35b34801561068157600080fd5b5061069c60048036038101906106979190612e0c565b611be3565b6040516106a99190612d64565b60405180910390f35b3480156106be57600080fd5b506106d960048036038101906106d49190612e0c565b611c22565b6040516106e69190612d64565b60405180910390f35b3480156106fb57600080fd5b50610704611cb1565b6040516107119190612d64565b60405180910390f35b34801561072657600080fd5b5061072f61200e565b005b34801561073d57600080fd5b5061075860048036038101906107539190612b07565b61234e565b6040516107659190612a7a565b60405180910390f35b34801561077a57600080fd5b50610783612366565b6040516107909190612a7a565b60405180910390f35b3480156107a557600080fd5b506107c060048036038101906107bb9190612b07565b612372565b6040516107cd9190612a7a565b60405180910390f35b3480156107e257600080fd5b506107fd60048036038101906107f89190612b07565b612439565b60405161080a9190612a7a565b60405180910390f35b34801561081f57600080fd5b5061083a60048036038101906108359190612b07565b612451565b6040516108479190612a7a565b60405180910390f35b34801561085c57600080fd5b50610865612469565b6040516108729190612a7a565b60405180910390f35b34801561088757600080fd5b506108a2600480360381019061089d9190612b07565b61246e565b6040516108af9190612a7a565b60405180910390f35b3480156108c457600080fd5b506108cd612602565b6040516108da9190612a7a565b60405180910390f35b3480156108ef57600080fd5b506108f8612607565b005b34801561090657600080fd5b5061090f612839565b60405161091c9190612a7a565b60405180910390f35b34801561093157600080fd5b5061093a61283e565b6040516109479190612a7a565b60405180910390f35b34801561095c57600080fd5b50610965612843565b6040516109729190612a7a565b60405180910390f35b34801561098757600080fd5b5061099061284b565b60405161099d9190612a7a565b60405180910390f35b3480156109b257600080fd5b506109cd60048036038101906109c89190612b07565b612850565b6040516109da9190612a7a565b60405180910390f35b600080601e600a546109f59190612e68565b9050804210610a08576000915050610a18565b4281610a149190612e9c565b9150505b90565b60076020528060005260406000206000915090505481565b60016020528060005260406000206000915090505481565b6000600954600b60008473ffffffffffffffffffffffffffffffffffffffff1673ffffffffffffffffffffffffffffffffffffffff1681526020019081526020016000205410159050919050565b6000600160003373ffffffffffffffffffffffffffffffffffffffff1673ffffffffffffffffffffffffffffffffffffffff1681526020019081526020016000205411610b1b576040517f08c379a0000000000000000000000000000000000000000000000000000000008152600401610b1290612f2d565b60405180910390fd5b6000600760003373ffffffffffffffffffffffffffffffffffffffff1673ffffffffffffffffffffffffffffffffffffffff1681526020019081526020016000205411610b9d576040517f08c379a0000000000000000000000000000000000000000000000000000000008152600401610b9490612f99565b60405180910390fd5b6000600760003373ffffffffffffffffffffffffffffffffffffffff1673ffffffffffffffffffffffffffffffffffffffff16815260200190815260200160002081905550565b60008054906101000a900473ffffffffffffffffffffffffffffffffffffffff1673ffffffffffffffffffffffffffffffffffffffff163373ffffffffffffffffffffffffffffffffffffffff1614610c72576040517f08c379a0000000000000000000000000000000000000000000000000000000008152600401610c6990613005565b60405180910390fd5b600073ffffffffffffffffffffffffffffffffffffffff168173ffffffffffffffffffffffffffffffffffffffff1603610ce1576040517f08c379a0000000000000000000000000000000000000000000000000000000008152600401610cd890613071565b60405180910390fd5b806000806101000a81548173ffffffffffffffffffffffffffffffffffffffff021916908373ffffffffffffffffffffffffffffffffffffffff16021790555050565b60066020528060005260406000206000915090505481565b6000600160003373ffffffffffffffffffffffffffffffffffffffff1673ffffffffffffffffffffffffffffffffffffffff1681526020019081526020016000205411610dbe576040517f08c379a0000000000000000000000000000000000000000000000000000000008152600401610db590612f2d565b60405180910390fd5b601e600a54610dcd9190612e68565b4210610ddc57610ddb611547565b5b600954600b60003373ffffffffffffffffffffffffffffffffffffffff1673ffffffffffffffffffffffffffffffffffffffff1681526020019081526020016000205410610e5f576040517f08c379a0000000000000000000000000000000000000000000000000000000008152600401610e56906130dd565b60405180910390fd5b600954600b60003373ffffffffffffffffffffffffffffffffffffffff1673ffffffffffffffffffffffffffffffffffffffff168152602001908152602001600020819055503373ffffffffffffffffffffffffffffffffffffffff167fc412fcb8b8d8e0edf2f0fd1b43fc792e524807de6510ad17727c84d075992acb600954604051610eed9190612a7a565b60405180910390a2565b670de0b6b3a7640000341015610f42576040517f08c379a0000000000000000000000000000000000000000000000000000000008152600401610f3990613149565b60405180910390fd5b6000600160003373ffffffffffffffffffffffffffffffffffffffff1673ffffffffffffffffffffffffffffffffffffffff1681526020019081526020016000205414610fc4576040517f08c379a0000000000000000000000000000000000000000000000000000000008152600401610fbb906131db565b60405180910390fd5b34600160003373ffffffffffffffffffffffffffffffffffffffff1673ffffffffffffffffffffffffffffffffffffffff1681526020019081526020016000208190555042600260003373ffffffffffffffffffffffffffffffffffffffff1673ffffffffffffffffffffffffffffffffffffffff16815260200190815260200160002081905550346003600082825461105e9190612e68565b925050819055506004339080600181540180825580915050600190039060005260206000200160009091909190916101000a81548173ffffffffffffffffffffffffffffffffffffffff021916908373ffffffffffffffffffffffffffffffffffffffff160217905550600480549050600560003373ffffffffffffffffffffffffffffffffffffffff1673ffffffffffffffffffffffffffffffffffffffff168152602001908152602001600020819055503373ffffffffffffffffffffffffffffffffffffffff167f9e71bc8eea02a63969f509818f2dafb9254532904319f9dbda79b67bd34a5f3d346040516111579190612a7a565b60405180910390a2565b6000600160003373ffffffffffffffffffffffffffffffffffffffff1673ffffffffffffffffffffffffffffffffffffffff16815260200190815260200160002054116111e3576040517f08c379a00000000000000000000000000000000000000000000000000000000081526004016111da90612f2d565b60405180910390fd5b6000600760003373ffffffffffffffffffffffffffffffffffffffff1673ffffffffffffffffffffffffffffffffffffffff1681526020019081526020016000205411611265576040517f08c379a000000000000000000000000000000000000000000000000000000000815260040161125c90613247565b60405180910390fd5b603c600760003373ffffffffffffffffffffffffffffffffffffffff1673ffffffffffffffffffffffffffffffffffffffff168152602001908152602001600020546112b19190612e68565b4210156112f3576040517f08c379a00000000000000000000000000000000000000000000000000000000081526004016112ea906132d9565b60405180910390fd5b6000600160003373ffffffffffffffffffffffffffffffffffffffff1673ffffffffffffffffffffffffffffffffffffffff16815260200190815260200160002054905060006113423361246e565b9050600081836113529190612e68565b90506000600160003373ffffffffffffffffffffffffffffffffffffffff1673ffffffffffffffffffffffffffffffffffffffff168152602001908152602001600020819055506000600260003373ffffffffffffffffffffffffffffffffffffffff1673ffffffffffffffffffffffffffffffffffffffff168152602001908152602001600020819055506000600760003373ffffffffffffffffffffffffffffffffffffffff1673ffffffffffffffffffffffffffffffffffffffff1681526020019081526020016000208190555082600360008282546114359190612e9c565b9250508190555061144533612868565b60003373ffffffffffffffffffffffffffffffffffffffff168260405161146b9061332a565b60006040518083038185875af1925050503d80600081146114a8576040519150601f19603f3d011682016040523d82523d6000602084013e6114ad565b606091505b50509050806114f1576040517f08c379a00000000000000000000000000000000000000000000000000000000081526004016114e89061338b565b60405180910390fd5b3373ffffffffffffffffffffffffffffffffffffffff167f92ccf450a286a957af52509bc1c9939d1a6a481783e142e41e2499f0bb66ebc685856040516115399291906133ab565b60405180910390a250505050565b601e600a546115569190612e68565b421015611598576040517f08c379a000000000000000000000000000000000000000000000000000000000815260040161158f90613446565b60405180910390fd5b600960008154809291906115ab90613466565b919050555042600a819055507facfa06cebbab8226f9a388bff9f5fcf4569298028d939f4765958dc57dbb330b600954426040516115ea9291906133ab565b60405180910390a1565b60008054906101000a900473ffffffffffffffffffffffffffffffffffffffff1673ffffffffffffffffffffffffffffffffffffffff163373ffffffffffffffffffffffffffffffffffffffff1614611682576040517f08c379a000000000000000000000000000000000000000000000000000000000815260040161167990613005565b60405180910390fd5b6000600160008473ffffffffffffffffffffffffffffffffffffffff1673ffffffffffffffffffffffffffffffffffffffff1681526020019081526020016000205411611704576040517f08c379a00000000000000000000000000000000000000000000000000000000081526004016116fb906134fa565b60405180910390fd5b600060646005600160008673ffffffffffffffffffffffffffffffffffffffff1673ffffffffffffffffffffffffffffffffffffffff16815260200190815260200160002054611754919061351a565b61175e919061358b565b905080600160008573ffffffffffffffffffffffffffffffffffffffff1673ffffffffffffffffffffffffffffffffffffffff16815260200190815260200160002060008282546117af9190612e9c565b9250508190555080600360008282546117c89190612e9c565b92505081905550600860008473ffffffffffffffffffffffffffffffffffffffff1673ffffffffffffffffffffffffffffffffffffffff168152602001908152602001600020600081548092919061181f90613466565b91905055508273ffffffffffffffffffffffffffffffffffffffff167f7e947095ed288d8885423bdaef4015b7420ffa9b84d62ef67c402e8bc36a8ea9828460405161186c92919061362a565b60405180910390a2505050565b3373ffffffffffffffffffffffffffffffffffffffff167f4bba44446aea2a9f27db36c95346239fd392bf3a497349684a3890d0d764077d82426040516118c192919061365a565b60405180910390a250565b600080600760008473ffffffffffffffffffffffffffffffffffffffff1673ffffffffffffffffffffffffffffffffffffffff168152602001908152602001600020540361193c577fffffffffffffffffffffffffffffffffffffffffffffffffffffffffffffffff90506119ad565b6000603c600760008573ffffffffffffffffffffffffffffffffffffffff1673ffffffffffffffffffffffffffffffffffffffff1681526020019081526020016000205461198a9190612e68565b905080421061199d5760009150506119ad565b42816119a99190612e9c565b9150505b919050565b6000600480549050905090565b60008054906101000a900473ffffffffffffffffffffffffffffffffffffffff1681565b60095481565b662386f26fc1000081565b60035481565b600a5481565b600080600080600080600160008873ffffffffffffffffffffffffffffffffffffffff1673ffffffffffffffffffffffffffffffffffffffff16815260200190815260200160002054611a528861246e565b600860008a73ffffffffffffffffffffffffffffffffffffffff1673ffffffffffffffffffffffffffffffffffffffff16815260200190815260200160002054600660008b73ffffffffffffffffffffffffffffffffffffffff1673ffffffffffffffffffffffffffffffffffffffff16815260200190815260200160002054600c60008c73ffffffffffffffffffffffffffffffffffffffff1673ffffffffffffffffffffffffffffffffffffffff16815260200190815260200160002054611b1b8c6118cc565b95509550955095509550955091939550919395565b60056020528060005260406000206000915090505481565b60008060035403611b685760646005611b61919061351a565b9050611bdb565b6000600480549050905060008103611b905760646005611b88919061351a565b915050611bdb565b6000600582611b9f919061358b565b6001611bab9190612e68565b60646005611bb9919061351a565b611bc3919061358b565b905060328111611bd4576032611bd6565b805b925050505b90565b601e81565b60048181548110611bf357600080fd5b906000526020600020016000915054906101000a900473ffffffffffffffffffffffffffffffffffffffff1681565b60006004805490508210611c6b576040517f08c379a0000000000000000000000000000000000000000000000000000000008152600401611c62906136d6565b60405180910390fd5b60048281548110611c7f57611c7e6136f6565b5b9060005260206000200160009054906101000a900473ffffffffffffffffffffffffffffffffffffffff169050919050565b60008060009054906101000a900473ffffffffffffffffffffffffffffffffffffffff1673ffffffffffffffffffffffffffffffffffffffff163373ffffffffffffffffffffffffffffffffffffffff1614611d42576040517f08c379a0000000000000000000000000000000000000000000000000000000008152600401611d3990613005565b60405180910390fd5b600060035411611d87576040517f08c379a0000000000000000000000000000000000000000000000000000000008152600401611d7e90613771565b60405180910390fd5b600060048054905011611dcf576040517f08c379a0000000000000000000000000000000000000000000000000000000008152600401611dc6906137dd565b60405180910390fd5b60006003544244600354600480549050604051602001611df2949392919061381e565b6040516020818303038152906040528051906020012060001c611e15919061386c565b90506000806004600081548110611e2f57611e2e6136f6565b5b9060005260206000200160009054906101000a900473ffffffffffffffffffffffffffffffffffffffff16905060005b600480549050811015611f58576001600060048381548110611e8457611e836136f6565b5b9060005260206000200160009054906101000a900473ffffffffffffffffffffffffffffffffffffffff1673ffffffffffffffffffffffffffffffffffffffff1673ffffffffffffffffffffffffffffffffffffffff1681526020019081526020016000205483611ef59190612e68565b925082841015611f455760048181548110611f1357611f126136f6565b5b9060005260206000200160009054906101000a900473ffffffffffffffffffffffffffffffffffffffff169150611f58565b8080611f5090613466565b915050611e5f565b50600660008273ffffffffffffffffffffffffffffffffffffffff1673ffffffffffffffffffffffffffffffffffffffff1681526020019081526020016000206000815480929190611fa990613466565b91905055508073ffffffffffffffffffffffffffffffffffffffff167fbe437d41c49d7ac5703545c4e3169768965dee7288aae5fcc4889f946b6aeb2043662386f26fc10000604051611ffd9291906133ab565b60405180910390a280935050505090565b60008054906101000a900473ffffffffffffffffffffffffffffffffffffffff1673ffffffffffffffffffffffffffffffffffffffff163373ffffffffffffffffffffffffffffffffffffffff161461209c576040517f08c379a000000000000000000000000000000000000000000000000000000000815260040161209390613005565b60405180910390fd5b601e600a546120ab9190612e68565b42106120ba576120b9611547565b5b60005b60048054905081101561234b576000600482815481106120e0576120df6136f6565b5b9060005260206000200160009054906101000a900473ffffffffffffffffffffffffffffffffffffffff1690506000600160008373ffffffffffffffffffffffffffffffffffffffff1673ffffffffffffffffffffffffffffffffffffffff168152602001908152602001600020541180156121a8575060016009546121669190612e9c565b600b60008373ffffffffffffffffffffffffffffffffffffffff1673ffffffffffffffffffffffffffffffffffffffff16815260200190815260200160002054105b156123375760006103e860018060008573ffffffffffffffffffffffffffffffffffffffff1673ffffffffffffffffffffffffffffffffffffffff168152602001908152602001600020546121fd919061351a565b612207919061358b565b905060008111156123355780600160008473ffffffffffffffffffffffffffffffffffffffff1673ffffffffffffffffffffffffffffffffffffffff16815260200190815260200160002060008282546122619190612e9c565b92505081905550806003600082825461227a9190612e9c565b92505081905550600c60008373ffffffffffffffffffffffffffffffffffffffff1673ffffffffffffffffffffffffffffffffffffffff16815260200190815260200160002060008154809291906122d190613466565b91905055508173ffffffffffffffffffffffffffffffffffffffff167fd1b7a785f2223c7a370b766be14e7a1a874a731199c31e3fb09e46719a5218b5600160095461231d9190612e9c565b8360405161232c9291906133ab565b60405180910390a25b505b50808061234390613466565b9150506120bd565b50565b600b6020528060005260406000206000915090505481565b670de0b6b3a764000081565b600080600160008473ffffffffffffffffffffffffffffffffffffffff1673ffffffffffffffffffffffffffffffffffffffff16815260200190815260200160002054036123c35760009050612434565b6000601e600260008573ffffffffffffffffffffffffffffffffffffffff1673ffffffffffffffffffffffffffffffffffffffff168152602001908152602001600020546124119190612e68565b9050804210612424576000915050612434565b42816124309190612e9c565b9150505b919050565b60026020528060005260406000206000915090505481565b60086020528060005260406000206000915090505481565b600181565b600080600160008473ffffffffffffffffffffffffffffffffffffffff1673ffffffffffffffffffffffffffffffffffffffff16815260200190815260200160002054036124bf57600090506125fd565b6000600260008473ffffffffffffffffffffffffffffffffffffffff1673ffffffffffffffffffffffffffffffffffffffff168152602001908152602001600020544261250c9190612e9c565b90506000600160008573ffffffffffffffffffffffffffffffffffffffff1673ffffffffffffffffffffffffffffffffffffffff16815260200190815260200160002054905060006301e133806064612565919061351a565b6103e884600585612576919061351a565b612580919061351a565b61258a919061351a565b612594919061358b565b905060006003541180156125a9575081600354115b156125f6576000600354670de0b6b3a7640000846125c7919061351a565b6125d1919061358b565b9050670de0b6b3a764000081836125e8919061351a565b6125f2919061358b565b9150505b8093505050505b919050565b603c81565b6000600160003373ffffffffffffffffffffffffffffffffffffffff1673ffffffffffffffffffffffffffffffffffffffff1681526020019081526020016000205411612689576040517f08c379a000000000000000000000000000000000000000000000000000000000815260040161268090612f2d565b60405180910390fd5b6000600760003373ffffffffffffffffffffffffffffffffffffffff1673ffffffffffffffffffffffffffffffffffffffff168152602001908152602001600020541461270b576040517f08c379a0000000000000000000000000000000000000000000000000000000008152600401612702906138e9565b60405180910390fd5b601e600260003373ffffffffffffffffffffffffffffffffffffffff1673ffffffffffffffffffffffffffffffffffffffff168152602001908152602001600020546127579190612e68565b421015612799576040517f08c379a00000000000000000000000000000000000000000000000000000000081526004016127909061397b565b60405180910390fd5b42600760003373ffffffffffffffffffffffffffffffffffffffff1673ffffffffffffffffffffffffffffffffffffffff168152602001908152602001600020819055503373ffffffffffffffffffffffffffffffffffffffff167fe670e4e82118d22a1f9ee18920455ebc958bae26a90a05d31d3378788b1b0e44603c426128229190612e68565b60405161282f9190612a7a565b60405180910390a2565b601e81565b600581565b6301e1338081565b600581565b600c6020528060005260406000206000915090505481565b6000600560008373ffffffffffffffffffffffffffffffffffffffff1673ffffffffffffffffffffffffffffffffffffffff168152602001908152602001600020549050600081036128ba5750612a5e565b60006001826128c99190612e9c565b9050600060016004805490506128df9190612e9c565b90508082146129ce576000600482815481106128fe576128fd6136f6565b5b9060005260206000200160009054906101000a900473ffffffffffffffffffffffffffffffffffffffff16905080600484815481106129405761293f6136f6565b5b9060005260206000200160006101000a81548173ffffffffffffffffffffffffffffffffffffffff021916908373ffffffffffffffffffffffffffffffffffffffff16021790555083600560008373ffffffffffffffffffffffffffffffffffffffff1673ffffffffffffffffffffffffffffffffffffffff16815260200190815260200160002081905550505b60048054806129e0576129df61399b565b5b6001900381819060005260206000200160006101000a81549073ffffffffffffffffffffffffffffffffffffffff021916905590556000600560008673ffffffffffffffffffffffffffffffffffffffff1673ffffffffffffffffffffffffffffffffffffffff168152602001908152602001600020819055505050505b50565b6000819050919050565b612a7481612a61565b82525050565b6000602082019050612a8f6000830184612a6b565b92915050565b6000604051905090565b600080fd5b600080fd5b600073ffffffffffffffffffffffffffffffffffffffff82169050919050565b6000612ad482612aa9565b9050919050565b612ae481612ac9565b8114612aef57600080fd5b50565b600081359050612b0181612adb565b92915050565b600060208284031215612b1d57612b1c612a9f565b5b6000612b2b84828501612af2565b91505092915050565b60008115159050919050565b612b4981612b34565b82525050565b6000602082019050612b646000830184612b40565b92915050565b600080fd5b600080fd5b6000601f19601f8301169050919050565b7f4e487b7100000000000000000000000000000000000000000000000000000000600052604160045260246000fd5b612bbd82612b74565b810181811067ffffffffffffffff82111715612bdc57612bdb612b85565b5b80604052505050565b6000612bef612a95565b9050612bfb8282612bb4565b919050565b600067ffffffffffffffff821115612c1b57612c1a612b85565b5b612c2482612b74565b9050602081019050919050565b82818337600083830152505050565b6000612c53612c4e84612c00565b612be5565b905082815260208101848484011115612c6f57612c6e612b6f565b5b612c7a848285612c31565b509392505050565b600082601f830112612c9757612c96612b6a565b5b8135612ca7848260208601612c40565b91505092915050565b60008060408385031215612cc757612cc6612a9f565b5b6000612cd585828601612af2565b925050602083013567ffffffffffffffff811115612cf657612cf5612aa4565b5b612d0285828601612c82565b9150509250929050565b600060208284031215612d2257612d21612a9f565b5b600082013567ffffffffffffffff811115612d4057612d3f612aa4565b5b612d4c84828501612c82565b91505092915050565b612d5e81612ac9565b82525050565b6000602082019050612d796000830184612d55565b92915050565b600060c082019050612d946000830189612a6b565b612da16020830188612a6b565b612dae6040830187612a6b565b612dbb6060830186612a6b565b612dc86080830185612a6b565b612dd560a0830184612a6b565b979650505050505050565b612de981612a61565b8114612df457600080fd5b50565b600081359050612e0681612de0565b92915050565b600060208284031215612e2257612e21612a9f565b5b6000612e3084828501612df7565b91505092915050565b7f4e487b7100000000000000000000000000000000000000000000000000000000600052601160045260246000fd5b6000612e7382612a61565b9150612e7e83612a61565b9250828201905080821115612e9657612e95612e39565b5b92915050565b6000612ea782612a61565b9150612eb283612a61565b9250828203905081811115612eca57612ec9612e39565b5b92915050565b600082825260208201905092915050565b7f4e6f7420612076616c696461746f720000000000000000000000000000000000600082015250565b6000612f17600f83612ed0565b9150612f2282612ee1565b602082019050919050565b60006020820190508181036000830152612f4681612f0a565b9050919050565b7f4e6f207769746864726177616c20726571756573746564000000000000000000600082015250565b6000612f83601783612ed0565b9150612f8e82612f4d565b602082019050919050565b60006020820190508181036000830152612fb281612f76565b9050919050565b7f4f6e6c7920696e7374727563746f722063616e2063616c6c2074686973000000600082015250565b6000612fef601d83612ed0565b9150612ffa82612fb9565b602082019050919050565b6000602082019050818103600083015261301e81612fe2565b9050919050565b7f496e76616c696420616464726573730000000000000000000000000000000000600082015250565b600061305b600f83612ed0565b915061306682613025565b602082019050919050565b6000602082019050818103600083015261308a8161304e565b9050919050565b7f416c726561647920617474657374656420746869732065706f63680000000000600082015250565b60006130c7601b83612ed0565b91506130d282613091565b602082019050919050565b600060208201905081810360008301526130f6816130ba565b9050919050565b7f4d696e696d756d207374616b6520697320312045544800000000000000000000600082015250565b6000613133601683612ed0565b915061313e826130fd565b602082019050919050565b6000602082019050818103600083015261316281613126565b9050919050565b7f416c726561647920612076616c696461746f72202d207769746864726177206660008201527f6972737400000000000000000000000000000000000000000000000000000000602082015250565b60006131c5602483612ed0565b91506131d082613169565b604082019050919050565b600060208201905081810360008301526131f4816131b8565b9050919050565b7f4d7573742072657175657374207769746864726177616c206669727374000000600082015250565b6000613231601d83612ed0565b915061323c826131fb565b602082019050919050565b6000602082019050818103600083015261326081613224565b9050919050565b7f556e626f6e64696e6720706572696f64206e6f7420636f6d706c65746520283660008201527f30207365636f6e64732900000000000000000000000000000000000000000000602082015250565b60006132c3602a83612ed0565b91506132ce82613267565b604082019050919050565b600060208201905081810360008301526132f2816132b6565b9050919050565b600081905092915050565b50565b60006133146000836132f9565b915061331f82613304565b600082019050919050565b600061333582613307565b9150819050919050565b7f4661696c656420746f2073656e64204554480000000000000000000000000000600082015250565b6000613375601283612ed0565b91506133808261333f565b602082019050919050565b600060208201905081810360008301526133a481613368565b9050919050565b60006040820190506133c06000830185612a6b565b6133cd6020830184612a6b565b9392505050565b7f45706f6368206475726174696f6e206e6f7420656c617073656420283330207360008201527f65636f6e64732900000000000000000000000000000000000000000000000000602082015250565b6000613430602783612ed0565b915061343b826133d4565b604082019050919050565b6000602082019050818103600083015261345f81613423565b9050919050565b600061347182612a61565b91507fffffffffffffffffffffffffffffffffffffffffffffffffffffffffffffffff82036134a3576134a2612e39565b5b600182019050919050565b7f41646472657373206973206e6f7420612076616c696461746f72000000000000600082015250565b60006134e4601a83612ed0565b91506134ef826134ae565b602082019050919050565b60006020820190508181036000830152613513816134d7565b9050919050565b600061352582612a61565b915061353083612a61565b925082820261353e81612a61565b9150828204841483151761355557613554612e39565b5b5092915050565b7f4e487b7100000000000000000000000000000000000000000000000000000000600052601260045260246000fd5b600061359682612a61565b91506135a183612a61565b9250826135b1576135b061355c565b5b828204905092915050565b600081519050919050565b60005b838110156135e55780820151818401526020810190506135ca565b60008484015250505050565b60006135fc826135bc565b6136068185612ed0565b93506136168185602086016135c7565b61361f81612b74565b840191505092915050565b600060408201905061363f6000830185612a6b565b818103602083015261365181846135f1565b90509392505050565b6000604082019050818103600083015261367481856135f1565b90506136836020830184612a6b565b9392505050565b7f496e646578206f7574206f6620626f756e647300000000000000000000000000600082015250565b60006136c0601383612ed0565b91506136cb8261368a565b602082019050919050565b600060208201905081810360008301526136ef816136b3565b9050919050565b7f4e487b7100000000000000000000000000000000000000000000000000000000600052603260045260246000fd5b7f4e6f2076616c696461746f7273207374616b696e670000000000000000000000600082015250565b600061375b601583612ed0565b915061376682613725565b602082019050919050565b6000602082019050818103600083015261378a8161374e565b9050919050565b7f4e6f2076616c696461746f727320696e206c6973740000000000000000000000600082015250565b60006137c7601583612ed0565b91506137d282613791565b602082019050919050565b600060208201905081810360008301526137f6816137ba565b9050919050565b6000819050919050565b61381861381382612a61565b6137fd565b82525050565b600061382a8287613807565b60208201915061383a8286613807565b60208201915061384a8285613807565b60208201915061385a8284613807565b60208201915081905095945050505050565b600061387782612a61565b915061388283612a61565b9250826138925761389161355c565b5b828206905092915050565b7f5769746864726177616c20616c72656164792072657175657374656400000000600082015250565b60006138d3601c83612ed0565b91506138de8261389d565b602082019050919050565b60006020820190508181036000830152613902816138c6565b9050919050565b7f4d757374207374616b6520666f72206d696e696d756d206475726174696f6e2060008201527f283330207365636f6e6473290000000000000000000000000000000000000000602082015250565b6000613965602c83612ed0565b915061397082613909565b604082019050919050565b6000602082019050818103600083015261399481613958565b9050919050565b7f4e487b7100000000000000000000000000000000000000000000000000000000600052603160045260246000fdfea2646970667358221220255f43114afb835eb8d5aff054c0b0bd6bc02f6b0e3ff5f91bc0922160671fd364736f6c63430008130033",
  "linkReferences": {},
  "deployedLinkReferences": {}
}