{
  "_format": "hh-sol-artifact-1",
  "contractName": "PoSSimulator",
  "sourceName": "contracts/PoS.sol",
  "abi": [
    {
      "anonymous": false,
      "inputs": [
        {
          "indexed": true,
          "internalType": "address",
          "name": "sender",
          "type": "address"
        },
        {
          "indexed": false,
          "internalType": "string",
          "name": "message",
          "type": "string"
        },
        {
          "indexed": false,
          "internalType": "uint256",
          "name": "timestamp",
          "type": "uint256"
        }
      ],
      "name": "NewMessage",
      "type": "event"
    },
    {
      "anonymous": false,
      "inputs": [
        {
          "indexed": true,
          "internalType": "address",
          "name": "validator",
          "type": "address"
        },
        {
          "indexed": false,
          "internalType": "uint256",
          "name": "amount",
          "type": "uint256"
        }
      ],
      "name": "Staked",
      "type": "event"
    },
    {
      "anonymous": false,
      "inputs": [
        {
          "indexed": true,
          "internalType": "address",
          "name": "validator",
          "type": "address"
        },
        {
          "indexed": false,
          "internalType": "uint256",
          "name": "amount",
          "type": "uint256"
        },
        {
          "indexed": false,
          "internalType": "uint256",
          "name": "reward",
          "type": "uint256"
        }
      ],
      "name": "Withdrawn",
      "type": "event"
    },
    {
      "inputs": [],
      "name": "MIN_STAKE",
      "outputs": [
        {
          "internalType": "uint256",
          "name": "",
          "type": "uint256"
        }
      ],
      "stateMutability": "view",
      "type": "function"
    },
    {
      "inputs": [],
      "name": "REWARD_RATE",
      "outputs": [
        {
          "internalType": "uint256",
          "name": "",
          "type": "uint256"
        }
      ],
      "stateMutability": "view",
      "type": "function"
    },
    {
      "inputs": [
        {
          "internalType": "address",
          "name": "validator",
          "type": "address"
        }
      ],
      "name": "calculateReward",
      "outputs": [
        {
          "internalType": "uint256",
          "name": "",
          "type": "uint256"
        }
      ],
      "stateMutability": "view",
      "type": "function"
    },
    {
      "inputs": [
        {
          "internalType": "string",
          "name": "_msg",
          "type": "string"
        }
      ],
      "name": "sendMessage",
      "outputs": [],
      "stateMutability": "nonpayable",
      "type": "function"
    },
    {
      "inputs": [],
      "name": "stake",
      "outputs": [],
      "stateMutability": "payable",
      "type": "function"
    },
    {
      "inputs": [
        {
          "internalType": "address",
          "name": "",
          "type": "address"
        }
      ],
      "name": "stakes",
      "outputs": [
        {
          "internalType": "uint256",
          "name": "",
          "type": "uint256"
        }
      ],
      "stateMutability": "view",
      "type": "function"
    },
    {
      "inputs": [
        {
          "internalType": "address",
          "name": "",
          "type": "address"
        }
      ],
      "name": "stakingStartTime",
      "outputs": [
        {
          "internalType": "uint256",
          "name": "",
          "type": "uint256"
        }
      ],
      "stateMutability": "view",
      "type": "function"
    },
    {
      "inputs": [],
      "name": "totalStaked",
      "outputs": [
        {
          "internalType": "uint256",
          "name": "",
          "type": "uint256"
        }
      ],
      "stateMutability": "view",
      "type": "function"
    },
    {
      "inputs": [],
      "name": "withdraw",
      "outputs": [],
      "stateMutability": "nonpayable",
      "type": "function"
    },
    {
      "stateMutability": "payable",
      "type": "receive"
    }
  ],
  "bytecode": "0x608060405234801561001057600080fd5b50610e97806100206000396000f3fe60806040526004361061008a5760003560e01c80635997bb37116100595780635997bb371461011d578063817b1cd214610148578063cb1c2b5c14610173578063d12327301461019e578063d82e3962146101db57610091565b806316934fc4146100965780633a4b66f1146100d35780633ccfd60b146100dd578063469c8110146100f457610091565b3661009157005b600080fd5b3480156100a257600080fd5b506100bd60048036038101906100b8919061086a565b610218565b6040516100ca91906108b0565b60405180910390f35b6100db610230565b005b3480156100e957600080fd5b506100f26103ec565b005b34801561010057600080fd5b5061011b60048036038101906101169190610a11565b610671565b005b34801561012957600080fd5b506101326106c4565b60405161013f91906108b0565b60405180910390f35b34801561015457600080fd5b5061015d6106c9565b60405161016a91906108b0565b60405180910390f35b34801561017f57600080fd5b506101886106cf565b60405161019591906108b0565b60405180910390f35b3480156101aa57600080fd5b506101c560048036038101906101c0919061086a565b6106db565b6040516101d291906108b0565b60405180910390f35b3480156101e757600080fd5b5061020260048036038101906101fd919061086a565b6106f3565b60405161020f91906108b0565b60405180910390f35b60006020528060005260406000206000915090505481565b670de0b6b3a764000034101561027b576040517f08c379a000000000000000000000000000000000000000000000000000000000815260040161027290610ab7565b60405180910390fd5b60008060003373ffffffffffffffffffffffffffffffffffffffff1673ffffffffffffffffffffffffffffffffffffffff16815260200190815260200160002054146102fc576040517f08c379a00000000000000000000000000000000000000000000000000000000081526004016102f390610b23565b60405180910390fd5b346000803373ffffffffffffffffffffffffffffffffffffffff1673ffffffffffffffffffffffffffffffffffffffff1681526020019081526020016000208190555042600160003373ffffffffffffffffffffffffffffffffffffffff1673ffffffffffffffffffffffffffffffffffffffff1681526020019081526020016000208190555034600260008282546103959190610b72565b925050819055503373ffffffffffffffffffffffffffffffffffffffff167f9e71bc8eea02a63969f509818f2dafb9254532904319f9dbda79b67bd34a5f3d346040516103e291906108b0565b60405180910390a2565b60008060003373ffffffffffffffffffffffffffffffffffffffff1673ffffffffffffffffffffffffffffffffffffffff168152602001908152602001600020541161046d576040517f08c379a000000000000000000000000000000000000000000000000000000000815260040161046490610bf2565b60405180910390fd5b60008060003373ffffffffffffffffffffffffffffffffffffffff1673ffffffffffffffffffffffffffffffffffffffff16815260200190815260200160002054905060006104bb336106f3565b9050600081836104cb9190610b72565b905060008060003373ffffffffffffffffffffffffffffffffffffffff1673ffffffffffffffffffffffffffffffffffffffff168152602001908152602001600020819055506000600160003373ffffffffffffffffffffffffffffffffffffffff1673ffffffffffffffffffffffffffffffffffffffff1681526020019081526020016000208190555082600260008282546105689190610c12565b9250508190555060003373ffffffffffffffffffffffffffffffffffffffff168260405161059590610c77565b60006040518083038185875af1925050503d80600081146105d2576040519150601f19603f3d011682016040523d82523d6000602084013e6105d7565b606091505b505090508061061b576040517f08c379a000000000000000000000000000000000000000000000000000000000815260040161061290610cd8565b60405180910390fd5b3373ffffffffffffffffffffffffffffffffffffffff167f92ccf450a286a957af52509bc1c9939d1a6a481783e142e41e2499f0bb66ebc68585604051610663929190610cf8565b60405180910390a250505050565b3373ffffffffffffffffffffffffffffffffffffffff167f4bba44446aea2a9f27db36c95346239fd392bf3a497349684a3890d0d764077d82426040516106b9929190610d8f565b60405180910390a250565b600a81565b60025481565b670de0b6b3a764000081565b60016020528060005260406000206000915090505481565b6000806000808473ffffffffffffffffffffffffffffffffffffffff1673ffffffffffffffffffffffffffffffffffffffff168152602001908152602001600020540361074357600090506107f3565b6000600160008473ffffffffffffffffffffffffffffffffffffffff1673ffffffffffffffffffffffffffffffffffffffff16815260200190815260200160002054426107909190610c12565b905060006103e8826000808773ffffffffffffffffffffffffffffffffffffffff1673ffffffffffffffffffffffffffffffffffffffff168152602001908152602001600020546107e19190610dbf565b6107eb9190610e30565b905080925050505b919050565b6000604051905090565b600080fd5b600080fd5b600073ffffffffffffffffffffffffffffffffffffffff82169050919050565b60006108378261080c565b9050919050565b6108478161082c565b811461085257600080fd5b50565b6000813590506108648161083e565b92915050565b6000602082840312156108805761087f610802565b5b600061088e84828501610855565b91505092915050565b6000819050919050565b6108aa81610897565b82525050565b60006020820190506108c560008301846108a1565b92915050565b600080fd5b600080fd5b6000601f19601f8301169050919050565b7f4e487b7100000000000000000000000000000000000000000000000000000000600052604160045260246000fd5b61091e826108d5565b810181811067ffffffffffffffff8211171561093d5761093c6108e6565b5b80604052505050565b60006109506107f8565b905061095c8282610915565b919050565b600067ffffffffffffffff82111561097c5761097b6108e6565b5b610985826108d5565b9050602081019050919050565b82818337600083830152505050565b60006109b46109af84610961565b610946565b9050828152602081018484840111156109d0576109cf6108d0565b5b6109db848285610992565b509392505050565b600082601f8301126109f8576109f76108cb565b5b8135610a088482602086016109a1565b91505092915050565b600060208284031215610a2757610a26610802565b5b600082013567ffffffffffffffff811115610a4557610a44610807565b5b610a51848285016109e3565b91505092915050565b600082825260208201905092915050565b7f496e737566666963656e74207374616b65000000000000000000000000000000600082015250565b6000610aa1601183610a5a565b9150610aac82610a6b565b602082019050919050565b60006020820190508181036000830152610ad081610a94565b9050919050565b7f416c726561647920612076616c696461746f7200000000000000000000000000600082015250565b6000610b0d601383610a5a565b9150610b1882610ad7565b602082019050919050565b60006020820190508181036000830152610b3c81610b00565b9050919050565b7f4e487b7100000000000000000000000000000000000000000000000000000000600052601160045260246000fd5b6000610b7d82610897565b9150610b8883610897565b9250828201905080821115610ba057610b9f610b43565b5b92915050565b7f4e6f7420612076616c696461746f720000000000000000000000000000000000600082015250565b6000610bdc600f83610a5a565b9150610be782610ba6565b602082019050919050565b60006020820190508181036000830152610c0b81610bcf565b9050919050565b6000610c1d82610897565b9150610c2883610897565b9250828203905081811115610c4057610c3f610b43565b5b92915050565b600081905092915050565b50565b6000610c61600083610c46565b9150610c6c82610c51565b600082019050919050565b6000610c8282610c54565b9150819050919050565b7f4661696c656420746f2073656e64204554480000000000000000000000000000600082015250565b6000610cc2601283610a5a565b9150610ccd82610c8c565b602082019050919050565b60006020820190508181036000830152610cf181610cb5565b9050919050565b6000604082019050610d0d60008301856108a1565b610d1a60208301846108a1565b9392505050565b600081519050919050565b60005b83811015610d4a578082015181840152602081019050610d2f565b60008484015250505050565b6000610d6182610d21565b610d6b8185610a5a565b9350610d7b818560208601610d2c565b610d84816108d5565b840191505092915050565b60006040820190508181036000830152610da98185610d56565b9050610db860208301846108a1565b9392505050565b6000610dca82610897565b9150610dd583610897565b9250828202610de381610897565b91508282048414831517610dfa57610df9610b43565b5b5092915050565b7f4e487b7100000000000000000000000000000000000000000000000000000000600052601260045260246000fd5b6000610e3b82610897565b9150610e4683610897565b925082610e5657610e55610e01565b5b82820490509291505056fea264697066735822122077e6b653433737127bd1aee0b2d04ba6206ffba5d2e7725e41e805570b6dba2764736f6c63430008130033",
  "linkReferences": {},
  "deployedLinkReferences": {}
}