{
  "_format": "hh-sol-artifact-1",
  "contractName": "HouseSale",
  "sourceName": "contracts/student/HouseSale_596405.sol",
  "abi": [
    {
      "inputs": [],
      "stateMutability": "nonpayable",
      "type": "constructor"
    },
    {
      "anonymous": false,
      "inputs": [
        {
          "indexed": false,
          "internalType": "address",
          "name": "buyer",
          "type": "address"
        },
        {
          "indexed": false,
          "internalType": "uint256",
          "name": "amount",
          "type": "uint256"
        }
      ],
      "name": "DepositReceived",
      "type": "event"
    },
    {
      "anonymous": false,
      "inputs": [
        {
          "indexed": false,
          "internalType": "address",
          "name": "buyer",
          "type": "address"
        }
      ],
      "name": "InspectionApproved",
      "type": "event"
    },
    {
      "anonymous": false,
      "inputs": [
        {
          "indexed": false,
          "internalType": "string",
          "name": "propertyAddress",
          "type": "string"
        },
        {
          "indexed": false,
          "internalType": "uint256",
          "name": "price",
          "type": "uint256"
        }
      ],
      "name": "PropertyListed",
      "type": "event"
    },
    {
      "anonymous": false,
      "inputs": [
        {
          "indexed": false,
          "internalType": "string",
          "name": "reason",
          "type": "string"
        }
      ],
      "name": "SaleCancelled",
      "type": "event"
    },
    {
      "anonymous": false,
      "inputs": [
        {
          "indexed": false,
          "internalType": "address",
          "name": "seller",
          "type": "address"
        },
        {
          "indexed": false,
          "internalType": "address",
          "name": "buyer",
          "type": "address"
        },
        {
          "indexed": false,
          "internalType": "uint256",
          "name": "amount",
          "type": "uint256"
        }
      ],
      "name": "SaleCompleted",
      "type": "event"
    },
    {
      "inputs": [],
      "name": "approveInspection",
      "outputs": [],
      "stateMutability": "nonpayable",
      "type": "function"
    },
    {
      "inputs": [],
      "name": "buyer",
      "outputs": [
        {
          "internalType": "address",
          "name": "",
          "type": "address"
        }
      ],
      "stateMutability": "view",
      "type": "function"
    },
    {
      "inputs": [
        {
          "internalType": "string",
          "name": "reason",
          "type": "string"
        }
      ],
      "name": "cancelSale",
      "outputs": [],
      "stateMutability": "nonpayable",
      "type": "function"
    },
    {
      "inputs": [],
      "name": "confirmTransfer",
      "outputs": [],
      "stateMutability": "nonpayable",
      "type": "function"
    },
    {
      "inputs": [],
      "name": "currentState",
      "outputs": [
        {
          "internalType": "enum HouseSale.State",
          "name": "",
          "type": "uint8"
        }
      ],
      "stateMutability": "view",
      "type": "function"
    },
    {
      "inputs": [],
      "name": "depositAmount",
      "outputs": [
        {
          "internalType": "uint256",
          "name": "",
          "type": "uint256"
        }
      ],
      "stateMutability": "view",
      "type": "function"
    },
    {
      "inputs": [],
      "name": "getContractBalance",
      "outputs": [
        {
          "internalType": "uint256",
          "name": "",
          "type": "uint256"
        }
      ],
      "stateMutability": "view",
      "type": "function"
    },
    {
      "inputs": [],
      "name": "getRemainingPayment",
      "outputs": [
        {
          "internalType": "uint256",
          "name": "",
          "type": "uint256"
        }
      ],
      "stateMutability": "view",
      "type": "function"
    },
    {
      "inputs": [],
      "name": "getTimeUntilInspectionDeadline",
      "outputs": [
        {
          "internalType": "int256",
          "name": "",
          "type": "int256"
        }
      ],
      "stateMutability": "view",
      "type": "function"
    },
    {
      "inputs": [],
      "name": "inspectionDeadline",
      "outputs": [
        {
          "internalType": "uint256",
          "name": "",
          "type": "uint256"
        }
      ],
      "stateMutability": "view",
      "type": "function"
    },
    {
      "inputs": [],
      "name": "payBalance",
      "outputs": [],
      "stateMutability": "payable",
      "type": "function"
    },
    {
      "inputs": [],
      "name": "payDeposit",
      "outputs": [],
      "stateMutability": "payable",
      "type": "function"
    },
    {
      "inputs": [],
      "name": "propertyAddress",
      "outputs": [
        {
          "internalType": "string",
          "name": "",
          "type": "string"
        }
      ],
      "stateMutability": "view",
      "type": "function"
    },
    {
      "inputs": [],
      "name": "salePrice",
      "outputs": [
        {
          "internalType": "uint256",
          "name": "",
          "type": "uint256"
        }
      ],
      "stateMutability": "view",
      "type": "function"
    },
    {
      "inputs": [],
      "name": "seller",
      "outputs": [
        {
          "internalType": "address",
          "name": "",
          "type": "address"
        }
      ],
      "stateMutability": "view",
      "type": "function"
    }
  ],
  "bytecode": "0x60806040523480156200001157600080fd5b50336000806101000a81548173ffffffffffffffffffffffffffffffffffffffff021916908373ffffffffffffffffffffffffffffffffffffffff1602179055506040518060400160405280601881526020017f313233204d61696e2053742c20416e79746f776e20555341000000000000000081525060029081620000989190620003b9565b50678ac7230489e800006003819055506064600a600354620000bb9190620004cf565b620000c7919062000549565b6004819055506000600660006101000a81548160ff02191690836004811115620000f657620000f562000581565b5b02179055507fd08ed604dff463ab96b34f77fbddab3a9dc9889aa941b4359a257f9b54fbd69c60026003546040516200013192919062000662565b60405180910390a162000696565b600081519050919050565b7f4e487b7100000000000000000000000000000000000000000000000000000000600052604160045260246000fd5b7f4e487b7100000000000000000000000000000000000000000000000000000000600052602260045260246000fd5b60006002820490506001821680620001c157607f821691505b602082108103620001d757620001d662000179565b5b50919050565b60008190508160005260206000209050919050565b60006020601f8301049050919050565b600082821b905092915050565b600060088302620002417fffffffffffffffffffffffffffffffffffffffffffffffffffffffffffffffff8262000202565b6200024d868362000202565b95508019841693508086168417925050509392505050565b6000819050919050565b6000819050919050565b60006200029a620002946200028e8462000265565b6200026f565b62000265565b9050919050565b6000819050919050565b620002b68362000279565b620002ce620002c582620002a1565b8484546200020f565b825550505050565b600090565b620002e5620002d6565b620002f2818484620002ab565b505050565b5b818110156200031a576200030e600082620002db565b600181019050620002f8565b5050565b601f82111562000369576200033381620001dd565b6200033e84620001f2565b810160208510156200034e578190505b620003666200035d85620001f2565b830182620002f7565b50505b505050565b600082821c905092915050565b60006200038e600019846008026200036e565b1980831691505092915050565b6000620003a983836200037b565b9150826002028217905092915050565b620003c4826200013f565b67ffffffffffffffff811115620003e057620003df6200014a565b5b620003ec8254620001a8565b620003f98282856200031e565b600060209050601f8311600181146200043157600084156200041c578287015190505b6200042885826200039b565b86555062000498565b601f1984166200044186620001dd565b60005b828110156200046b5784890151825560018201915060208501945060208101905062000444565b868310156200048b578489015162000487601f8916826200037b565b8355505b6001600288020188555050505b505050505050565b7f4e487b7100000000000000000000000000000000000000000000000000000000600052601160045260246000fd5b6000620004dc8262000265565b9150620004e98362000265565b9250828202620004f98162000265565b91508282048414831517620005135762000512620004a0565b5b5092915050565b7f4e487b7100000000000000000000000000000000000000000000000000000000600052601260045260246000fd5b6000620005568262000265565b9150620005638362000265565b9250826200057657620005756200051a565b5b828204905092915050565b7f4e487b7100000000000000000000000000000000000000000000000000000000600052602160045260246000fd5b600082825260208201905092915050565b60008154620005d081620001a8565b620005dc8186620005b0565b94506001821660008114620005fa5760018114620006115762000648565b60ff19831686528115156020028601935062000648565b6200061c85620001dd565b60005b8381101562000640578154818901526001820191506020810190506200061f565b808801955050505b50505092915050565b6200065c8162000265565b82525050565b600060408201905081810360008301526200067e8185620005c1565b90506200068f602083018462000651565b9392505050565b61196580620006a66000396000f3fe6080604052600436106100e85760003560e01c806366440d711161008a578063baa4930111610059578063baa49301146102a3578063d5503d5f146102ba578063ec6b720b146102c4578063f51f96dd146102db576100e8565b806366440d71146101f75780636f9fb98a146102225780637150d8ae1461024d578063af7a667414610278576100e8565b80631bb6e0ac116100c65780631bb6e0ac1461016e5780632977f78a14610199578063419759f5146101c25780635c274b86146101ed576100e8565b806308551a53146100ed5780630a76c50c146101185780630c3f6acf14610143575b600080fd5b3480156100f957600080fd5b50610102610306565b60405161010f9190610fc8565b60405180910390f35b34801561012457600080fd5b5061012d61032a565b60405161013a9190610ffc565b60405180910390f35b34801561014f57600080fd5b50610158610330565b604051610165919061108e565b60405180910390f35b34801561017a57600080fd5b50610183610343565b60405161019091906110c2565b60405180910390f35b3480156101a557600080fd5b506101c060048036038101906101bb919061114c565b61038a565b005b3480156101ce57600080fd5b506101d7610675565b6040516101e49190610ffc565b60405180910390f35b6101f561067b565b005b34801561020357600080fd5b5061020c610885565b6040516102199190611229565b60405180910390f35b34801561022e57600080fd5b50610237610913565b6040516102449190610ffc565b60405180910390f35b34801561025957600080fd5b5061026261091b565b60405161026f9190610fc8565b60405180910390f35b34801561028457600080fd5b5061028d610941565b60405161029a9190610ffc565b60405180910390f35b3480156102af57600080fd5b506102b86109a9565b005b6102c2610c6e565b005b3480156102d057600080fd5b506102d9610dd0565b005b3480156102e757600080fd5b506102f0610f81565b6040516102fd9190610ffc565b60405180910390f35b60008054906101000a900473ffffffffffffffffffffffffffffffffffffffff1681565b60055481565b600660009054906101000a900460ff1681565b60008060055403610376577fffffffffffffffffffffffffffffffffffffffffffffffffffffffffffffffff9050610387565b42600554610384919061127a565b90505b90565b60008054906101000a900473ffffffffffffffffffffffffffffffffffffffff1673ffffffffffffffffffffffffffffffffffffffff163373ffffffffffffffffffffffffffffffffffffffff1614610418576040517f08c379a000000000000000000000000000000000000000000000000000000000815260040161040f90611309565b60405180910390fd5b6000600481111561042c5761042b611017565b5b600660009054906101000a900460ff16600481111561044e5761044d611017565b5b148061049a57506001600481111561046957610468611017565b5b600660009054906101000a900460ff16600481111561048b5761048a611017565b5b148015610499575060055442115b5b6104d9576040517f08c379a00000000000000000000000000000000000000000000000000000000081526004016104d090611375565b60405180910390fd5b6004600660006101000a81548160ff021916908360048111156104ff576104fe611017565b5b0217905550600073ffffffffffffffffffffffffffffffffffffffff16600160009054906101000a900473ffffffffffffffffffffffffffffffffffffffff1673ffffffffffffffffffffffffffffffffffffffff16141580156105635750600047115b15610638576000600160009054906101000a900473ffffffffffffffffffffffffffffffffffffffff1673ffffffffffffffffffffffffffffffffffffffff16476040516105b0906113c6565b60006040518083038185875af1925050503d80600081146105ed576040519150601f19603f3d011682016040523d82523d6000602084013e6105f2565b606091505b5050905080610636576040517f08c379a000000000000000000000000000000000000000000000000000000000815260040161062d90611427565b60405180910390fd5b505b7fb01fe324b74b9d38611c8b79601afe77ef3e1396c542b46513219da709159db68282604051610669929190611483565b60405180910390a15050565b60045481565b60008060048111156106905761068f611017565b5b600660009054906101000a900460ff1660048111156106b2576106b1611017565b5b146106f2576040517f08c379a00000000000000000000000000000000000000000000000000000000081526004016106e9906114f3565b60405180910390fd5b600454341015610737576040517f08c379a000000000000000000000000000000000000000000000000000000000815260040161072e9061155f565b60405180910390fd5b600073ffffffffffffffffffffffffffffffffffffffff16600160009054906101000a900473ffffffffffffffffffffffffffffffffffffffff1673ffffffffffffffffffffffffffffffffffffffff16146107c8576040517f08c379a00000000000000000000000000000000000000000000000000000000081526004016107bf906115cb565b60405180910390fd5b33600160006101000a81548173ffffffffffffffffffffffffffffffffffffffff021916908373ffffffffffffffffffffffffffffffffffffffff16021790555062093a804261081891906115eb565b6005819055506001600660006101000a81548160ff0219169083600481111561084457610843611017565b5b02179055507f9936746a4565f9766fa768f88f56a7487c78780ac179562773d1c75c5269537e333460405161087a92919061161f565b60405180910390a150565b6002805461089290611677565b80601f01602080910402602001604051908101604052809291908181526020018280546108be90611677565b801561090b5780601f106108e05761010080835404028352916020019161090b565b820191906000526020600020905b8154815290600101906020018083116108ee57829003601f168201915b505050505081565b600047905090565b600160009054906101000a900473ffffffffffffffffffffffffffffffffffffffff1681565b60006002600481111561095757610956611017565b5b600660009054906101000a900460ff16600481111561097957610978611017565b5b03610993574760035461098c91906116a8565b90506109a6565b6004546003546109a391906116a8565b90505b90565b60008054906101000a900473ffffffffffffffffffffffffffffffffffffffff1673ffffffffffffffffffffffffffffffffffffffff163373ffffffffffffffffffffffffffffffffffffffff1614610a37576040517f08c379a0000000000000000000000000000000000000000000000000000000008152600401610a2e90611309565b60405180910390fd5b6002806004811115610a4c57610a4b611017565b5b600660009054906101000a900460ff166004811115610a6e57610a6d611017565b5b14610aae576040517f08c379a0000000000000000000000000000000000000000000000000000000008152600401610aa5906114f3565b60405180910390fd5b600354471015610af3576040517f08c379a0000000000000000000000000000000000000000000000000000000008152600401610aea90611728565b60405180910390fd5b6003600660006101000a81548160ff02191690836004811115610b1957610b18611017565b5b021790555060008060009054906101000a900473ffffffffffffffffffffffffffffffffffffffff1673ffffffffffffffffffffffffffffffffffffffff1647604051610b65906113c6565b60006040518083038185875af1925050503d8060008114610ba2576040519150601f19603f3d011682016040523d82523d6000602084013e610ba7565b606091505b5050905080610beb576040517f08c379a0000000000000000000000000000000000000000000000000000000008152600401610be290611794565b60405180910390fd5b7fd096fdd1c0eb5b28e18d287f828bb68ae24b538e91b557555b53efa3d92a9ef060008054906101000a900473ffffffffffffffffffffffffffffffffffffffff16600160009054906101000a900473ffffffffffffffffffffffffffffffffffffffff16600354604051610c62939291906117b4565b60405180910390a15050565b600160009054906101000a900473ffffffffffffffffffffffffffffffffffffffff1673ffffffffffffffffffffffffffffffffffffffff163373ffffffffffffffffffffffffffffffffffffffff1614610cfe576040517f08c379a0000000000000000000000000000000000000000000000000000000008152600401610cf590611837565b60405180910390fd5b6002806004811115610d1357610d12611017565b5b600660009054906101000a900460ff166004811115610d3557610d34611017565b5b14610d75576040517f08c379a0000000000000000000000000000000000000000000000000000000008152600401610d6c906114f3565b60405180910390fd5b6000600454600354610d8791906116a8565b905080341015610dcc576040517f08c379a0000000000000000000000000000000000000000000000000000000008152600401610dc3906118a3565b60405180910390fd5b5050565b600160009054906101000a900473ffffffffffffffffffffffffffffffffffffffff1673ffffffffffffffffffffffffffffffffffffffff163373ffffffffffffffffffffffffffffffffffffffff1614610e60576040517f08c379a0000000000000000000000000000000000000000000000000000000008152600401610e5790611837565b60405180910390fd5b6001806004811115610e7557610e74611017565b5b600660009054906101000a900460ff166004811115610e9757610e96611017565b5b14610ed7576040517f08c379a0000000000000000000000000000000000000000000000000000000008152600401610ece906114f3565b60405180910390fd5b600554421115610f1c576040517f08c379a0000000000000000000000000000000000000000000000000000000008152600401610f139061190f565b60405180910390fd5b6002600660006101000a81548160ff02191690836004811115610f4257610f41611017565b5b02179055507fd7e33d3cef6b64fa87b1c62da6417f1e22349e0e4636f9265ad88a646a671f0533604051610f769190610fc8565b60405180910390a150565b60035481565b600073ffffffffffffffffffffffffffffffffffffffff82169050919050565b6000610fb282610f87565b9050919050565b610fc281610fa7565b82525050565b6000602082019050610fdd6000830184610fb9565b92915050565b6000819050919050565b610ff681610fe3565b82525050565b60006020820190506110116000830184610fed565b92915050565b7f4e487b7100000000000000000000000000000000000000000000000000000000600052602160045260246000fd5b6005811061105757611056611017565b5b50565b600081905061106882611046565b919050565b60006110788261105a565b9050919050565b6110888161106d565b82525050565b60006020820190506110a3600083018461107f565b92915050565b6000819050919050565b6110bc816110a9565b82525050565b60006020820190506110d760008301846110b3565b92915050565b600080fd5b600080fd5b600080fd5b600080fd5b600080fd5b60008083601f84011261110c5761110b6110e7565b5b8235905067ffffffffffffffff811115611129576111286110ec565b5b602083019150836001820283011115611145576111446110f1565b5b9250929050565b60008060208385031215611163576111626110dd565b5b600083013567ffffffffffffffff811115611181576111806110e2565b5b61118d858286016110f6565b92509250509250929050565b600081519050919050565b600082825260208201905092915050565b60005b838110156111d35780820151818401526020810190506111b8565b60008484015250505050565b6000601f19601f8301169050919050565b60006111fb82611199565b61120581856111a4565b93506112158185602086016111b5565b61121e816111df565b840191505092915050565b6000602082019050818103600083015261124381846111f0565b905092915050565b7f4e487b7100000000000000000000000000000000000000000000000000000000600052601160045260246000fd5b6000611285826110a9565b9150611290836110a9565b92508282039050818112600084121682821360008512151617156112b7576112b661124b565b5b92915050565b7f4f6e6c792073656c6c65722063616e2063616c6c207468697300000000000000600082015250565b60006112f36019836111a4565b91506112fe826112bd565b602082019050919050565b60006020820190508181036000830152611322816112e6565b9050919050565b7f43616e6e6f742063616e63656c20617420746869732073746167650000000000600082015250565b600061135f601b836111a4565b915061136a82611329565b602082019050919050565b6000602082019050818103600083015261138e81611352565b9050919050565b600081905092915050565b50565b60006113b0600083611395565b91506113bb826113a0565b600082019050919050565b60006113d1826113a3565b9150819050919050565b7f526566756e64206661696c656400000000000000000000000000000000000000600082015250565b6000611411600d836111a4565b915061141c826113db565b602082019050919050565b6000602082019050818103600083015261144081611404565b9050919050565b82818337600083830152505050565b600061146283856111a4565b935061146f838584611447565b611478836111df565b840190509392505050565b6000602082019050818103600083015261149e818486611456565b90509392505050565b7f496e76616c696420737461746520666f72207468697320616374696f6e000000600082015250565b60006114dd601d836111a4565b91506114e8826114a7565b602082019050919050565b6000602082019050818103600083015261150c816114d0565b9050919050565b7f4465706f73697420746f6f206c6f770000000000000000000000000000000000600082015250565b6000611549600f836111a4565b915061155482611513565b602082019050919050565b600060208201905081810360008301526115788161153c565b9050919050565b7f427579657220616c726561647920736574000000000000000000000000000000600082015250565b60006115b56011836111a4565b91506115c08261157f565b602082019050919050565b600060208201905081810360008301526115e4816115a8565b9050919050565b60006115f682610fe3565b915061160183610fe3565b92508282019050808211156116195761161861124b565b5b92915050565b60006040820190506116346000830185610fb9565b6116416020830184610fed565b9392505050565b7f4e487b7100000000000000000000000000000000000000000000000000000000600052602260045260246000fd5b6000600282049050600182168061168f57607f821691505b6020821081036116a2576116a1611648565b5b50919050565b60006116b382610fe3565b91506116be83610fe3565b92508282039050818111156116d6576116d561124b565b5b92915050565b7f46756c6c207061796d656e74206e6f7420726563656976656400000000000000600082015250565b60006117126019836111a4565b915061171d826116dc565b602082019050919050565b6000602082019050818103600083015261174181611705565b9050919050565b7f5472616e73666572206661696c65640000000000000000000000000000000000600082015250565b600061177e600f836111a4565b915061178982611748565b602082019050919050565b600060208201905081810360008301526117ad81611771565b9050919050565b60006060820190506117c96000830186610fb9565b6117d66020830185610fb9565b6117e36040830184610fed565b949350505050565b7f4f6e6c792062757965722063616e2063616c6c20746869730000000000000000600082015250565b60006118216018836111a4565b915061182c826117eb565b602082019050919050565b6000602082019050818103600083015261185081611814565b9050919050565b7f496e73756666696369656e74207061796d656e74000000000000000000000000600082015250565b600061188d6014836111a4565b915061189882611857565b602082019050919050565b600060208201905081810360008301526118bc81611880565b9050919050565b7f496e7370656374696f6e20706572696f64206578706972656400000000000000600082015250565b60006118f96019836111a4565b9150611904826118c3565b602082019050919050565b60006020820190508181036000830152611928816118ec565b905091905056fea2646970667358221220d704511faa1c0c56746bba894c093f47a9a305e67fe4cf774f8d9796de391a7064736f6c63430008130033",
  "linkReferences": {},
  "deployedLinkReferences": {}
}