{
  "_format": "hh-sol-artifact-1",
  "contractName": "ClassroomVote",
  "sourceName": "contracts/student/ClassroomVote_413789.sol",
  "abi": [
    {
      "inputs": [],
      "stateMutability": "nonpayable",
      "type": "constructor"
    },
    {
      "anonymous": false,
      "inputs": [
        {
          "indexed": true,
          "internalType": "address",
          "name": "voter",
          "type": "address"
        },
        {
          "indexed": false,
          "internalType": "string",
          "name": "choice",
          "type": "string"
        }
      ],
      "name": "VoteCast",
      "type": "event"
    },
    {
      "anonymous": false,
      "inputs": [
        {
          "indexed": false,
          "internalType": "string",
          "name": "winner",
          "type": "string"
        },
        {
          "indexed": false,
          "internalType": "uint256",
          "name": "winnerVotes",
          "type": "uint256"
        },
        {
          "indexed": false,
          "internalType": "uint256",
          "name": "totalVotes",
          "type": "uint256"
        }
      ],
      "name": "VotingClosed",
      "type": "event"
    },
    {
      "anonymous": false,
      "inputs": [
        {
          "indexed": false,
          "internalType": "string",
          "name": "question",
          "type": "string"
        }
      ],
      "name": "VotingOpened",
      "type": "event"
    },
    {
      "inputs": [
        {
          "internalType": "address",
          "name": "voter",
          "type": "address"
        }
      ],
      "name": "checkVoter",
      "outputs": [
        {
          "internalType": "bool",
          "name": "voted",
          "type": "bool"
        },
        {
          "internalType": "string",
          "name": "choice",
          "type": "string"
        }
      ],
      "stateMutability": "view",
      "type": "function"
    },
    {
      "inputs": [],
      "name": "closeVoting",
      "outputs": [],
      "stateMutability": "nonpayable",
      "type": "function"
    },
    {
      "inputs": [],
      "name": "getFormattedResults",
      "outputs": [
        {
          "internalType": "string",
          "name": "",
          "type": "string"
        }
      ],
      "stateMutability": "view",
      "type": "function"
    },
    {
      "inputs": [],
      "name": "getResults",
      "outputs": [
        {
          "internalType": "string",
          "name": "_question",
          "type": "string"
        },
        {
          "internalType": "string",
          "name": "_optionA",
          "type": "string"
        },
        {
          "internalType": "uint256",
          "name": "_votesA",
          "type": "uint256"
        },
        {
          "internalType": "string",
          "name": "_optionB",
          "type": "string"
        },
        {
          "internalType": "uint256",
          "name": "_votesB",
          "type": "uint256"
        },
        {
          "internalType": "uint256",
          "name": "_totalVoters",
          "type": "uint256"
        },
        {
          "internalType": "bool",
          "name": "_isOpen",
          "type": "bool"
        }
      ],
      "stateMutability": "view",
      "type": "function"
    },
    {
      "inputs": [],
      "name": "getTotalVoters",
      "outputs": [
        {
          "internalType": "uint256",
          "name": "",
          "type": "uint256"
        }
      ],
      "stateMutability": "view",
      "type": "function"
    },
    {
      "inputs": [],
      "name": "getWinner",
      "outputs": [
        {
          "internalType": "string",
          "name": "winner",
          "type": "string"
        },
        {
          "internalType": "uint256",
          "name": "votes",
          "type": "uint256"
        },
        {
          "internalType": "string",
          "name": "status",
          "type": "string"
        }
      ],
      "stateMutability": "view",
      "type": "function"
    },
    {
      "inputs": [
        {
          "internalType": "address",
          "name": "",
          "type": "address"
        }
      ],
      "name": "hasVoted",
      "outputs": [
        {
          "internalType": "bool",
          "name": "",
          "type": "bool"
        }
      ],
      "stateMutability": "view",
      "type": "function"
    },
    {
      "inputs": [],
      "name": "instructor",
      "outputs": [
        {
          "internalType": "address",
          "name": "",
          "type": "address"
        }
      ],
      "stateMutability": "view",
      "type": "function"
    },
    {
      "inputs": [],
      "name": "openVoting",
      "outputs": [],
      "stateMutability": "nonpayable",
      "type": "function"
    },
    {
      "inputs": [],
      "name": "optionA",
      "outputs": [
        {
          "internalType": "string",
          "name": "",
          "type": "string"
        }
      ],
      "stateMutability": "view",
      "type": "function"
    },
    {
      "inputs": [],
      "name": "optionB",
      "outputs": [
        {
          "internalType": "string",
          "name": "",
          "type": "string"
        }
      ],
      "stateMutability": "view",
      "type": "function"
    },
    {
      "inputs": [],
      "name": "question",
      "outputs": [
        {
          "internalType": "string",
          "name": "",
          "type": "string"
        }
      ],
      "stateMutability": "view",
      "type": "function"
    },
    {
      "inputs": [],
      "name": "resetVoting",
      "outputs": [],
      "stateMutability": "nonpayable",
      "type": "function"
    },
    {
      "inputs": [],
      "name": "voteA",
      "outputs": [],
      "stateMutability": "nonpayable",
      "type": "function"
    },
    {
      "inputs": [],
      "name": "voteB",
      "outputs": [],
      "stateMutability": "nonpayable",
      "type": "function"
    },
    {
      "inputs": [
        {
          "internalType": "address",
          "name": "",
          "type": "address"
        }
      ],
      "name": "voterChoice",
      "outputs": [
        {
          "internalType": "string",
          "name": "",
          "type": "string"
        }
      ],
      "stateMutability": "view",
      "type": "function"
    },
    {
      "inputs": [
        {
          "internalType": "uint256",
          "name": "",
          "type": "uint256"
        }
      ],
      "name": "voters",
      "outputs": [
        {
          "internalType": "address",
          "name": "",
          "type": "address"
        }
      ],
      "stateMutability": "view",
      "type": "function"
    },
    {
      "inputs": [],
      "name": "votesForA",
      "outputs": [
        {
          "internalType": "uint256",
          "name": "",
          "type": "uint256"
        }
      ],
      "stateMutability": "view",
      "type": "function"
    },
    {
      "inputs": [],
      "name": "votesForB",
      "outputs": [
        {
          "internalType": "uint256",
          "name": "",
          "type": "uint256"
        }
      ],
      "stateMutability": "view",
      "type": "function"
    },
    {
      "inputs": [],
      "name": "votingOpen",
      "outputs": [
        {
          "internalType": "bool",
          "name": "",
          "type": "bool"
        }
      ],
      "stateMutability": "view",
      "type": "function"
    }
  ],
  "bytecode": "0x60806040523480156200001157600080fd5b50336000806101000a81548173ffffffffffffffffffffffffffffffffffffffff021916908373ffffffffffffffffffffffffffffffffffffffff16021790555060405180606001604052806026815260200162002ce160269139600190816200007c91906200038a565b506040518060400160405280601f81526020017f4b656570206c756e6368206174203120686f7572203330206d696e757465730081525060029081620000c391906200038a565b506040518060600160405280602e815260200162002cb3602e913960039081620000ee91906200038a565b506000600660006101000a81548160ff02191690831515021790555062000471565b600081519050919050565b7f4e487b7100000000000000000000000000000000000000000000000000000000600052604160045260246000fd5b7f4e487b7100000000000000000000000000000000000000000000000000000000600052602260045260246000fd5b600060028204905060018216806200019257607f821691505b602082108103620001a857620001a76200014a565b5b50919050565b60008190508160005260206000209050919050565b60006020601f8301049050919050565b600082821b905092915050565b600060088302620002127fffffffffffffffffffffffffffffffffffffffffffffffffffffffffffffffff82620001d3565b6200021e8683620001d3565b95508019841693508086168417925050509392505050565b6000819050919050565b6000819050919050565b60006200026b620002656200025f8462000236565b62000240565b62000236565b9050919050565b6000819050919050565b62000287836200024a565b6200029f620002968262000272565b848454620001e0565b825550505050565b600090565b620002b6620002a7565b620002c38184846200027c565b505050565b5b81811015620002eb57620002df600082620002ac565b600181019050620002c9565b5050565b601f8211156200033a576200030481620001ae565b6200030f84620001c3565b810160208510156200031f578190505b620003376200032e85620001c3565b830182620002c8565b50505b505050565b600082821c905092915050565b60006200035f600019846008026200033f565b1980831691505092915050565b60006200037a83836200034c565b9150826002028217905092915050565b620003958262000110565b67ffffffffffffffff811115620003b157620003b06200011b565b5b620003bd825462000179565b620003ca828285620002ef565b600060209050601f831160018114620004025760008415620003ed578287015190505b620003f985826200036c565b86555062000469565b601f1984166200041286620001ae565b60005b828110156200043c5784890151825560018201915060208501945060208101905062000415565b868310156200045c578489015162000458601f8916826200034c565b8355505b6001600288020188555050505b505050505050565b61283280620004816000396000f3fe608060405234801561001057600080fd5b506004361061012c5760003560e01c8063793cf218116100ad578063ad84c2da11610071578063ad84c2da146102f8578063affc067014610328578063c631b29214610332578063da58c7d91461033c578063fb32aedb1461036c5761012c565b8063793cf21814610261578063856e698c1461027f5780638e7ea5b2146102895780639b8ebc54146102a9578063a95824b4146102da5761012c565b80633fad9ae0116100f45780633fad9ae0146101d95780634717f97c146101f757806355416e061461021b578063693e76291461022557806371ae413d146102435761012c565b806309eef43e14610131578063136b914d14610161578063160aa0331461017f5780632157409d1461019d5780632dc4d601146101bb575b600080fd5b61014b600480360381019061014691906119ee565b610376565b6040516101589190611a36565b60405180910390f35b610169610396565b6040516101769190611ae1565b60405180910390f35b610187610424565b6040516101949190611b1c565b60405180910390f35b6101a561042a565b6040516101b29190611ae1565b60405180910390f35b6101c36104b8565b6040516101d09190611ae1565b60405180910390f35b6101e1610507565b6040516101ee9190611ae1565b60405180910390f35b6101ff610595565b6040516102129796959493929190611b37565b60405180910390f35b61022361077e565b005b61022d610a00565b60405161023a9190611b1c565b60405180910390f35b61024b610a06565b6040516102589190611bca565b60405180910390f35b610269610a2a565b6040516102769190611b1c565b60405180910390f35b610287610a37565b005b610291610c6f565b6040516102a093929190611be5565b60405180910390f35b6102c360048036038101906102be91906119ee565b610ef4565b6040516102d1929190611c2a565b60405180910390f35b6102e2611019565b6040516102ef9190611a36565b60405180910390f35b610312600480360381019061030d91906119ee565b61102c565b60405161031f9190611ae1565b60405180910390f35b6103306110cc565b005b61033a6111ff565b005b61035660048036038101906103519190611c86565b6114c4565b6040516103639190611bca565b60405180910390f35b610374611503565b005b60076020528060005260406000206000915054906101000a900460ff1681565b600380546103a390611ce2565b80601f01602080910402602001604051908101604052809291908181526020018280546103cf90611ce2565b801561041c5780601f106103f15761010080835404028352916020019161041c565b820191906000526020600020905b8154815290600101906020018083116103ff57829003601f168201915b505050505081565b60055481565b6002805461043790611ce2565b80601f016020809104026020016040519081016040528092919081815260200182805461046390611ce2565b80156104b05780601f10610485576101008083540402835291602001916104b0565b820191906000526020600020905b81548152906001019060200180831161049357829003601f168201915b505050505081565b606060016104c7600454611785565b6104d2600554611785565b6104e0600980549050611785565b6040516020016104f39493929190611faf565b604051602081830303815290604052905090565b6001805461051490611ce2565b80601f016020809104026020016040519081016040528092919081815260200182805461054090611ce2565b801561058d5780601f106105625761010080835404028352916020019161058d565b820191906000526020600020905b81548152906001019060200180831161057057829003601f168201915b505050505081565b606080600060606000806000600160026004546003600554600980549050600660009054906101000a900460ff168680546105cf90611ce2565b80601f01602080910402602001604051908101604052809291908181526020018280546105fb90611ce2565b80156106485780601f1061061d57610100808354040283529160200191610648565b820191906000526020600020905b81548152906001019060200180831161062b57829003601f168201915b5050505050965085805461065b90611ce2565b80601f016020809104026020016040519081016040528092919081815260200182805461068790611ce2565b80156106d45780601f106106a9576101008083540402835291602001916106d4565b820191906000526020600020905b8154815290600101906020018083116106b757829003601f168201915b505050505095508380546106e790611ce2565b80601f016020809104026020016040519081016040528092919081815260200182805461071390611ce2565b80156107605780601f1061073557610100808354040283529160200191610760565b820191906000526020600020905b81548152906001019060200180831161074357829003601f168201915b50505050509350965096509650965096509650965090919293949596565b600660009054906101000a900460ff166107cd576040517f08c379a00000000000000000000000000000000000000000000000000000000081526004016107c490612086565b60405180910390fd5b600760003373ffffffffffffffffffffffffffffffffffffffff1673ffffffffffffffffffffffffffffffffffffffff16815260200190815260200160002060009054906101000a900460ff161561085a576040517f08c379a0000000000000000000000000000000000000000000000000000000008152600401610851906120f2565b60405180910390fd5b6001600760003373ffffffffffffffffffffffffffffffffffffffff1673ffffffffffffffffffffffffffffffffffffffff16815260200190815260200160002060006101000a81548160ff0219169083151502179055506040518060400160405280600181526020017f4100000000000000000000000000000000000000000000000000000000000000815250600860003373ffffffffffffffffffffffffffffffffffffffff1673ffffffffffffffffffffffffffffffffffffffff168152602001908152602001600020908161093391906122d8565b506009339080600181540180825580915050600190039060005260206000200160009091909190916101000a81548173ffffffffffffffffffffffffffffffffffffffff021916908373ffffffffffffffffffffffffffffffffffffffff160217905550600460008154809291906109aa906123d9565b91905055503373ffffffffffffffffffffffffffffffffffffffff167f866dc605853954ffa419910eb05d67f430efec2e7db7ce135bf55565667a4ab460026040516109f691906124a5565b60405180910390a2565b60045481565b60008054906101000a900473ffffffffffffffffffffffffffffffffffffffff1681565b6000600980549050905090565b60008054906101000a900473ffffffffffffffffffffffffffffffffffffffff1673ffffffffffffffffffffffffffffffffffffffff163373ffffffffffffffffffffffffffffffffffffffff1614610ac5576040517f08c379a0000000000000000000000000000000000000000000000000000000008152600401610abc90612513565b60405180910390fd5b600660009054906101000a900460ff1615610b15576040517f08c379a0000000000000000000000000000000000000000000000000000000008152600401610b0c9061257f565b60405180910390fd5b60005b600980549050811015610c4e576007600060098381548110610b3d57610b3c61259f565b5b9060005260206000200160009054906101000a900473ffffffffffffffffffffffffffffffffffffffff1673ffffffffffffffffffffffffffffffffffffffff1673ffffffffffffffffffffffffffffffffffffffff16815260200190815260200160002060006101000a81549060ff02191690556008600060098381548110610bca57610bc961259f565b5b9060005260206000200160009054906101000a900473ffffffffffffffffffffffffffffffffffffffff1673ffffffffffffffffffffffffffffffffffffffff1673ffffffffffffffffffffffffffffffffffffffff1681526020019081526020016000206000610c3b919061190d565b8080610c46906123d9565b915050610b18565b5060096000610c5d919061194d565b60006004819055506000600581905550565b6060600060606005546004541115610d9a57600260045460055460045414610ccc576040518060400160405280600781526020017f4c454144494e4700000000000000000000000000000000000000000000000000815250610d03565b6040518060400160405280600381526020017f54494500000000000000000000000000000000000000000000000000000000008152505b828054610d0f90611ce2565b80601f0160208091040260200160405190810160405280929190818152602001828054610d3b90611ce2565b8015610d885780601f10610d5d57610100808354040283529160200191610d88565b820191906000526020600020905b815481529060010190602001808311610d6b57829003601f168201915b50505050509250925092509250610eef565b6004546005541115610e78576003600554818054610db790611ce2565b80601f0160208091040260200160405190810160405280929190818152602001828054610de390611ce2565b8015610e305780601f10610e0557610100808354040283529160200191610e30565b820191906000526020600020905b815481529060010190602001808311610e1357829003601f168201915b505050505091506040518060400160405280600781526020017f4c454144494e4700000000000000000000000000000000000000000000000000815250925092509250610eef565b6004546040518060400160405280600381526020017f5449450000000000000000000000000000000000000000000000000000000000815250906040518060400160405280600381526020017f54494500000000000000000000000000000000000000000000000000000000008152509250925092505b909192565b60006060600760008473ffffffffffffffffffffffffffffffffffffffff1673ffffffffffffffffffffffffffffffffffffffff16815260200190815260200160002060009054906101000a900460ff16600860008573ffffffffffffffffffffffffffffffffffffffff1673ffffffffffffffffffffffffffffffffffffffff168152602001908152602001600020808054610f9090611ce2565b80601f0160208091040260200160405190810160405280929190818152602001828054610fbc90611ce2565b80156110095780601f10610fde57610100808354040283529160200191611009565b820191906000526020600020905b815481529060010190602001808311610fec57829003601f168201915b5050505050905091509150915091565b600660009054906101000a900460ff1681565b6008602052806000526040600020600091509050805461104b90611ce2565b80601f016020809104026020016040519081016040528092919081815260200182805461107790611ce2565b80156110c45780601f10611099576101008083540402835291602001916110c4565b820191906000526020600020905b8154815290600101906020018083116110a757829003601f168201915b505050505081565b60008054906101000a900473ffffffffffffffffffffffffffffffffffffffff1673ffffffffffffffffffffffffffffffffffffffff163373ffffffffffffffffffffffffffffffffffffffff161461115a576040517f08c379a000000000000000000000000000000000000000000000000000000000815260040161115190612513565b60405180910390fd5b600660009054906101000a900460ff16156111aa576040517f08c379a00000000000000000000000000000000000000000000000000000000081526004016111a19061261a565b60405180910390fd5b6001600660006101000a81548160ff0219169083151502179055507fc0a54deb70f93a572d8db0bfa4c0d2be4e9343fd3f4ca9fdce0bb153305e1c7260016040516111f591906124a5565b60405180910390a1565b60008054906101000a900473ffffffffffffffffffffffffffffffffffffffff1673ffffffffffffffffffffffffffffffffffffffff163373ffffffffffffffffffffffffffffffffffffffff161461128d576040517f08c379a000000000000000000000000000000000000000000000000000000000815260040161128490612513565b60405180910390fd5b600660009054906101000a900460ff166112dc576040517f08c379a00000000000000000000000000000000000000000000000000000000081526004016112d390612686565b60405180910390fd5b6000600660006101000a81548160ff02191690831515021790555060606000600554600454111561139e576002805461131490611ce2565b80601f016020809104026020016040519081016040528092919081815260200182805461134090611ce2565b801561138d5780601f106113625761010080835404028352916020019161138d565b820191906000526020600020905b81548152906001019060200180831161137057829003601f168201915b505050505091506004549050611480565b600454600554111561144157600380546113b790611ce2565b80601f01602080910402602001604051908101604052809291908181526020018280546113e390611ce2565b80156114305780601f1061140557610100808354040283529160200191611430565b820191906000526020600020905b81548152906001019060200180831161141357829003601f168201915b50505050509150600554905061147f565b6040518060400160405280600381526020017f5449450000000000000000000000000000000000000000000000000000000000815250915060045490505b5b7fd351d12e7e667c144e78865c5d6733f065e93d5c142b46d0bec1e1651af5ede582826009805490506040516114b8939291906126a6565b60405180910390a15050565b600981815481106114d457600080fd5b906000526020600020016000915054906101000a900473ffffffffffffffffffffffffffffffffffffffff1681565b600660009054906101000a900460ff16611552576040517f08c379a000000000000000000000000000000000000000000000000000000000815260040161154990612086565b60405180910390fd5b600760003373ffffffffffffffffffffffffffffffffffffffff1673ffffffffffffffffffffffffffffffffffffffff16815260200190815260200160002060009054906101000a900460ff16156115df576040517f08c379a00000000000000000000000000000000000000000000000000000000081526004016115d6906120f2565b60405180910390fd5b6001600760003373ffffffffffffffffffffffffffffffffffffffff1673ffffffffffffffffffffffffffffffffffffffff16815260200190815260200160002060006101000a81548160ff0219169083151502179055506040518060400160405280600181526020017f4200000000000000000000000000000000000000000000000000000000000000815250600860003373ffffffffffffffffffffffffffffffffffffffff1673ffffffffffffffffffffffffffffffffffffffff16815260200190815260200160002090816116b891906122d8565b506009339080600181540180825580915050600190039060005260206000200160009091909190916101000a81548173ffffffffffffffffffffffffffffffffffffffff021916908373ffffffffffffffffffffffffffffffffffffffff1602179055506005600081548092919061172f906123d9565b91905055503373ffffffffffffffffffffffffffffffffffffffff167f866dc605853954ffa419910eb05d67f430efec2e7db7ce135bf55565667a4ab4600360405161177b91906124a5565b60405180910390a2565b6060600082036117cc576040518060400160405280600181526020017f30000000000000000000000000000000000000000000000000000000000000008152509050611908565b600082905060005b600082146117fe5780806117e7906123d9565b915050600a826117f79190612713565b91506117d4565b60008167ffffffffffffffff81111561181a57611819612112565b5b6040519080825280601f01601f19166020018201604052801561184c5781602001600182028036833780820191505090505b50905060008290505b600086146119005760018161186a9190612744565b90506000600a808861187c9190612713565b6118869190612778565b876118919190612744565b603061189d91906127c7565b905060008160f81b9050808484815181106118bb576118ba61259f565b5b60200101907effffffffffffffffffffffffffffffffffffffffffffffffffffffffffffff1916908160001a905350600a886118f79190612713565b97505050611855565b819450505050505b919050565b50805461191990611ce2565b6000825580601f1061192b575061194a565b601f016020900490600052602060002090810190611949919061196e565b5b50565b508054600082559060005260206000209081019061196b919061196e565b50565b5b8082111561198757600081600090555060010161196f565b5090565b600080fd5b600073ffffffffffffffffffffffffffffffffffffffff82169050919050565b60006119bb82611990565b9050919050565b6119cb816119b0565b81146119d657600080fd5b50565b6000813590506119e8816119c2565b92915050565b600060208284031215611a0457611a0361198b565b5b6000611a12848285016119d9565b91505092915050565b60008115159050919050565b611a3081611a1b565b82525050565b6000602082019050611a4b6000830184611a27565b92915050565b600081519050919050565b600082825260208201905092915050565b60005b83811015611a8b578082015181840152602081019050611a70565b60008484015250505050565b6000601f19601f8301169050919050565b6000611ab382611a51565b611abd8185611a5c565b9350611acd818560208601611a6d565b611ad681611a97565b840191505092915050565b60006020820190508181036000830152611afb8184611aa8565b905092915050565b6000819050919050565b611b1681611b03565b82525050565b6000602082019050611b316000830184611b0d565b92915050565b600060e0820190508181036000830152611b51818a611aa8565b90508181036020830152611b658189611aa8565b9050611b746040830188611b0d565b8181036060830152611b868187611aa8565b9050611b956080830186611b0d565b611ba260a0830185611b0d565b611baf60c0830184611a27565b98975050505050505050565b611bc4816119b0565b82525050565b6000602082019050611bdf6000830184611bbb565b92915050565b60006060820190508181036000830152611bff8186611aa8565b9050611c0e6020830185611b0d565b8181036040830152611c208184611aa8565b9050949350505050565b6000604082019050611c3f6000830185611a27565b8181036020830152611c518184611aa8565b90509392505050565b611c6381611b03565b8114611c6e57600080fd5b50565b600081359050611c8081611c5a565b92915050565b600060208284031215611c9c57611c9b61198b565b5b6000611caa84828501611c71565b91505092915050565b7f4e487b7100000000000000000000000000000000000000000000000000000000600052602260045260246000fd5b60006002820490506001821680611cfa57607f821691505b602082108103611d0d57611d0c611cb3565b5b50919050565b600081905092915050565b7f5175657374696f6e3a2000000000000000000000000000000000000000000000600082015250565b6000611d54600a83611d13565b9150611d5f82611d1e565b600a82019050919050565b60008190508160005260206000209050919050565b60008154611d8c81611ce2565b611d968186611d13565b94506001821660008114611db15760018114611dc657611df9565b60ff1983168652811515820286019350611df9565b611dcf85611d6a565b60005b83811015611df157815481890152600182019150602081019050611dd2565b838801955050505b50505092915050565b7f207c204f7074696f6e20413a2000000000000000000000000000000000000000600082015250565b6000611e38600d83611d13565b9150611e4382611e02565b600d82019050919050565b6000611e5982611a51565b611e638185611d13565b9350611e73818560208601611a6d565b80840191505092915050565b7f20766f7465730000000000000000000000000000000000000000000000000000600082015250565b6000611eb5600683611d13565b9150611ec082611e7f565b600682019050919050565b7f207c204f7074696f6e20423a2000000000000000000000000000000000000000600082015250565b6000611f01600d83611d13565b9150611f0c82611ecb565b600d82019050919050565b7f207c20546f74616c3a2000000000000000000000000000000000000000000000600082015250565b6000611f4d600a83611d13565b9150611f5882611f17565b600a82019050919050565b7f20766f7465727300000000000000000000000000000000000000000000000000600082015250565b6000611f99600783611d13565b9150611fa482611f63565b600782019050919050565b6000611fba82611d47565b9150611fc68287611d7f565b9150611fd182611e2b565b9150611fdd8286611e4e565b9150611fe882611ea8565b9150611ff382611ef4565b9150611fff8285611e4e565b915061200a82611ea8565b915061201582611f40565b91506120218284611e4e565b915061202c82611f8c565b915081905095945050505050565b7f566f74696e67206973206e6f74206f70656e0000000000000000000000000000600082015250565b6000612070601283611a5c565b915061207b8261203a565b602082019050919050565b6000602082019050818103600083015261209f81612063565b9050919050565b7f416c726561647920766f74656400000000000000000000000000000000000000600082015250565b60006120dc600d83611a5c565b91506120e7826120a6565b602082019050919050565b6000602082019050818103600083015261210b816120cf565b9050919050565b7f4e487b7100000000000000000000000000000000000000000000000000000000600052604160045260246000fd5b60006020601f8301049050919050565b600082821b905092915050565b60006008830261218e7fffffffffffffffffffffffffffffffffffffffffffffffffffffffffffffffff82612151565b6121988683612151565b95508019841693508086168417925050509392505050565b6000819050919050565b60006121d56121d06121cb84611b03565b6121b0565b611b03565b9050919050565b6000819050919050565b6121ef836121ba565b6122036121fb826121dc565b84845461215e565b825550505050565b600090565b61221861220b565b6122238184846121e6565b505050565b5b818110156122475761223c600082612210565b600181019050612229565b5050565b601f82111561228c5761225d81611d6a565b61226684612141565b81016020851015612275578190505b61228961228185612141565b830182612228565b50505b505050565b600082821c905092915050565b60006122af60001984600802612291565b1980831691505092915050565b60006122c8838361229e565b9150826002028217905092915050565b6122e182611a51565b67ffffffffffffffff8111156122fa576122f9612112565b5b6123048254611ce2565b61230f82828561224b565b600060209050601f8311600181146123425760008415612330578287015190505b61233a85826122bc565b8655506123a2565b601f19841661235086611d6a565b60005b8281101561237857848901518255600182019150602085019450602081019050612353565b868310156123955784890151612391601f89168261229e565b8355505b6001600288020188555050505b505050505050565b7f4e487b7100000000000000000000000000000000000000000000000000000000600052601160045260246000fd5b60006123e482611b03565b91507fffffffffffffffffffffffffffffffffffffffffffffffffffffffffffffffff8203612416576124156123aa565b5b600182019050919050565b6000815461242e81611ce2565b6124388186611a5c565b9450600182166000811461245357600181146124695761249c565b60ff19831686528115156020028601935061249c565b61247285611d6a565b60005b8381101561249457815481890152600182019150602081019050612475565b808801955050505b50505092915050565b600060208201905081810360008301526124bf8184612421565b905092915050565b7f4f6e6c7920696e7374727563746f722063616e2063616c6c2074686973000000600082015250565b60006124fd601d83611a5c565b9150612508826124c7565b602082019050919050565b6000602082019050818103600083015261252c816124f0565b9050919050565b7f436c6f736520766f74696e672066697273740000000000000000000000000000600082015250565b6000612569601283611a5c565b915061257482612533565b602082019050919050565b600060208201905081810360008301526125988161255c565b9050919050565b7f4e487b7100000000000000000000000000000000000000000000000000000000600052603260045260246000fd5b7f566f74696e6720616c7265616479206f70656e00000000000000000000000000600082015250565b6000612604601383611a5c565b915061260f826125ce565b602082019050919050565b60006020820190508181036000830152612633816125f7565b9050919050565b7f566f74696e67206e6f74206f70656e0000000000000000000000000000000000600082015250565b6000612670600f83611a5c565b915061267b8261263a565b602082019050919050565b6000602082019050818103600083015261269f81612663565b9050919050565b600060608201905081810360008301526126c08186611aa8565b90506126cf6020830185611b0d565b6126dc6040830184611b0d565b949350505050565b7f4e487b7100000000000000000000000000000000000000000000000000000000600052601260045260246000fd5b600061271e82611b03565b915061272983611b03565b925082612739576127386126e4565b5b828204905092915050565b600061274f82611b03565b915061275a83611b03565b9250828203905081811115612772576127716123aa565b5b92915050565b600061278382611b03565b915061278e83611b03565b925082820261279c81611b03565b915082820484148315176127b3576127b26123aa565b5b5092915050565b600060ff82169050919050565b60006127d2826127ba565b91506127dd836127ba565b9250828201905060ff8111156127f6576127f56123aa565b5b9291505056fea2646970667358221220c565abfb9370e966a533b697e430a88058ef8845ab947b10bf6c0f5115860d7564736f6c634300081300334368616e676520746f203120686f7572206c756e63682c206c65617665203330206d696e75746573206561726c79576861742073686f756c64206f7572206c756e636820627265616b20706f6c6963792062653f",
  "linkReferences": {},
  "deployedLinkReferences": {}
}