{
  "_format": "hh-sol-artifact-1",
  "contractName": "MyStakingPool",
  "sourceName": "contracts/MyStakingPool.sol",
  "abi": [
    {
      "anonymous": false,
      "inputs": [
        {
          "indexed": true,
          "internalType": "address",
          "name": "user",
          "type": "address"
        },
        {
          "indexed": false,
          "internalType": "uint256",
          "name": "amount",
          "type": "uint256"
        }
      ],
      "name": "Staked",
      "type": "event"
    },
    {
      "anonymous": false,
      "inputs": [
        {
          "indexed": true,
          "internalType": "address",
          "name": "user",
          "type": "address"
        },
        {
          "indexed": false,
          "internalType": "uint256",
          "name": "amount",
          "type": "uint256"
        },
        {
          "indexed": false,
          "internalType": "uint256",
          "name": "reward",
          "type": "uint256"
        }
      ],
      "name": "Unstaked",
      "type": "event"
    },
    {
      "inputs": [
        {
          "internalType": "address",
          "name": "user",
          "type": "address"
        }
      ],
      "name": "calculateReward",
      "outputs": [
        {
          "internalType": "uint256",
          "name": "",
          "type": "uint256"
        }
      ],
      "stateMutability": "view",
      "type": "function"
    },
    {
      "inputs": [],
      "name": "stake",
      "outputs": [],
      "stateMutability": "payable",
      "type": "function"
    },
    {
      "inputs": [
        {
          "internalType": "address",
          "name": "",
          "type": "address"
        }
      ],
      "name": "stakes",
      "outputs": [
        {
          "internalType": "uint256",
          "name": "",
          "type": "uint256"
        }
      ],
      "stateMutability": "view",
      "type": "function"
    },
    {
      "inputs": [
        {
          "internalType": "address",
          "name": "",
          "type": "address"
        }
      ],
      "name": "stakingTime",
      "outputs": [
        {
          "internalType": "uint256",
          "name": "",
          "type": "uint256"
        }
      ],
      "stateMutability": "view",
      "type": "function"
    },
    {
      "inputs": [],
      "name": "totalStaked",
      "outputs": [
        {
          "internalType": "uint256",
          "name": "",
          "type": "uint256"
        }
      ],
      "stateMutability": "view",
      "type": "function"
    },
    {
      "inputs": [],
      "name": "unstake",
      "outputs": [],
      "stateMutability": "nonpayable",
      "type": "function"
    },
    {
      "stateMutability": "payable",
      "type": "receive"
    }
  ],
  "bytecode": "0x608060405234801561001057600080fd5b50610b55806100206000396000f3fe6080604052600436106100595760003560e01c806316934fc4146100655780632def6620146100a25780633a4b66f1146100b9578063583d42fd146100c3578063817b1cd214610100578063d82e39621461012b57610060565b3661006057005b600080fd5b34801561007157600080fd5b5061008c60048036038101906100879190610755565b610168565b604051610099919061079b565b60405180910390f35b3480156100ae57600080fd5b506100b7610180565b005b6100c1610405565b005b3480156100cf57600080fd5b506100ea60048036038101906100e59190610755565b6105c1565b6040516100f7919061079b565b60405180910390f35b34801561010c57600080fd5b506101156105d9565b604051610122919061079b565b60405180910390f35b34801561013757600080fd5b50610152600480360381019061014d9190610755565b6105df565b60405161015f919061079b565b60405180910390f35b60006020528060005260406000206000915090505481565b60008060003373ffffffffffffffffffffffffffffffffffffffff1673ffffffffffffffffffffffffffffffffffffffff1681526020019081526020016000205411610201576040517f08c379a00000000000000000000000000000000000000000000000000000000081526004016101f890610813565b60405180910390fd5b60008060003373ffffffffffffffffffffffffffffffffffffffff1673ffffffffffffffffffffffffffffffffffffffff168152602001908152602001600020549050600061024f336105df565b90506000818361025f9190610862565b905060008060003373ffffffffffffffffffffffffffffffffffffffff1673ffffffffffffffffffffffffffffffffffffffff168152602001908152602001600020819055506000600160003373ffffffffffffffffffffffffffffffffffffffff1673ffffffffffffffffffffffffffffffffffffffff1681526020019081526020016000208190555082600260008282546102fc9190610896565b9250508190555060003373ffffffffffffffffffffffffffffffffffffffff1682604051610329906108fb565b60006040518083038185875af1925050503d8060008114610366576040519150601f19603f3d011682016040523d82523d6000602084013e61036b565b606091505b50509050806103af576040517f08c379a00000000000000000000000000000000000000000000000000000000081526004016103a69061095c565b60405180910390fd5b3373ffffffffffffffffffffffffffffffffffffffff167f7fc4727e062e336010f2c282598ef5f14facb3de68cf8195c2f23e1454b2b74e85856040516103f792919061097c565b60405180910390a250505050565b670de0b6b3a7640000341015610450576040517f08c379a0000000000000000000000000000000000000000000000000000000008152600401610447906109f1565b60405180910390fd5b60008060003373ffffffffffffffffffffffffffffffffffffffff1673ffffffffffffffffffffffffffffffffffffffff16815260200190815260200160002054146104d1576040517f08c379a00000000000000000000000000000000000000000000000000000000081526004016104c890610a5d565b60405180910390fd5b346000803373ffffffffffffffffffffffffffffffffffffffff1673ffffffffffffffffffffffffffffffffffffffff1681526020019081526020016000208190555042600160003373ffffffffffffffffffffffffffffffffffffffff1673ffffffffffffffffffffffffffffffffffffffff16815260200190815260200160002081905550346002600082825461056a9190610862565b925050819055503373ffffffffffffffffffffffffffffffffffffffff167f9e71bc8eea02a63969f509818f2dafb9254532904319f9dbda79b67bd34a5f3d346040516105b7919061079b565b60405180910390a2565b60016020528060005260406000206000915090505481565b60025481565b6000806000808473ffffffffffffffffffffffffffffffffffffffff1673ffffffffffffffffffffffffffffffffffffffff168152602001908152602001600020540361062f57600090506106ed565b6000600160008473ffffffffffffffffffffffffffffffffffffffff1673ffffffffffffffffffffffffffffffffffffffff168152602001908152602001600020544261067c9190610896565b9050600063bbf81e006005836000808873ffffffffffffffffffffffffffffffffffffffff1673ffffffffffffffffffffffffffffffffffffffff168152602001908152602001600020546106d19190610a7d565b6106db9190610a7d565b6106e59190610aee565b905080925050505b919050565b600080fd5b600073ffffffffffffffffffffffffffffffffffffffff82169050919050565b6000610722826106f7565b9050919050565b61073281610717565b811461073d57600080fd5b50565b60008135905061074f81610729565b92915050565b60006020828403121561076b5761076a6106f2565b5b600061077984828501610740565b91505092915050565b6000819050919050565b61079581610782565b82525050565b60006020820190506107b0600083018461078c565b92915050565b600082825260208201905092915050565b7f4e6f74207374616b696e67000000000000000000000000000000000000000000600082015250565b60006107fd600b836107b6565b9150610808826107c7565b602082019050919050565b6000602082019050818103600083015261082c816107f0565b9050919050565b7f4e487b7100000000000000000000000000000000000000000000000000000000600052601160045260246000fd5b600061086d82610782565b915061087883610782565b92508282019050808211156108905761088f610833565b5b92915050565b60006108a182610782565b91506108ac83610782565b92508282039050818111156108c4576108c3610833565b5b92915050565b600081905092915050565b50565b60006108e56000836108ca565b91506108f0826108d5565b600082019050919050565b6000610906826108d8565b9150819050919050565b7f5472616e73666572206661696c65640000000000000000000000000000000000600082015250565b6000610946600f836107b6565b915061095182610910565b602082019050919050565b6000602082019050818103600083015261097581610939565b9050919050565b6000604082019050610991600083018561078c565b61099e602083018461078c565b9392505050565b7f4d696e696d756d20312045544800000000000000000000000000000000000000600082015250565b60006109db600d836107b6565b91506109e6826109a5565b602082019050919050565b60006020820190508181036000830152610a0a816109ce565b9050919050565b7f416c7265616479207374616b696e670000000000000000000000000000000000600082015250565b6000610a47600f836107b6565b9150610a5282610a11565b602082019050919050565b60006020820190508181036000830152610a7681610a3a565b9050919050565b6000610a8882610782565b9150610a9383610782565b9250828202610aa181610782565b91508282048414831517610ab857610ab7610833565b5b5092915050565b7f4e487b7100000000000000000000000000000000000000000000000000000000600052601260045260246000fd5b6000610af982610782565b9150610b0483610782565b925082610b1457610b13610abf565b5b82820490509291505056fea264697066735822122080aca15fa18e05b7d4c7a3910e6d7a04dee723f8cd720812c117cf192359341f64736f6c63430008130033",
  "linkReferences": {},
  "deployedLinkReferences": {}
}